:020000040800F2
:10000000B01000209D0100081B1D0008CB1B00083C
:10001000191D000853070008FD210008000000001A
:10002000000000000000000000000000211D00088A
:1000300055070008000000001D1D0008231D0008D2
:10004000B7010008B7010008B7010008B7010008B0
:10005000B70100081F1D0008B7010008B70100081C
:10006000B7010008B7010008B7010008B701000890
:10007000B7010008B7010008B7010008B701000880
:10008000B7010008B7010008B7010008B701000870
:10009000B7010008B7010008B7010008B701000860
:1000A000B7010008B7010008B7010008B701000850
:1000B000891D0008B7010008B7010008B701000852
:1000C000B7010008B7010008B7010008B701000830
:1000D000B7010008B7010008B7010008B701000820
:1000E000B7010008B7010008B7010008B701000810
:1000F000B7010008B7010008B7010008B701000800
:10010000B7010008B7010008B7010008B7010008EF
:10011000B7010008B7010008B7010008B7010008DF
:10012000B7010008B7010008B7010008B7010008CF
:10013000B7010008B7010008B7010008B7010008BF
:10014000B7010008B7010008B7010008B7010008AF
:10015000B7010008B7010008B7010008B70100089F
:10016000B7010008B7010008B7010008B70100088F
:10017000B7010008B7010008B7010008000000003F
:10018000B7010008B7010008DFF80CD000F09EFAB4
:1001900000480047F12A0008B010002006488047B8
:1001A00006480047FEE7FEE7FEE7FEE7FEE7FEE75C
:1001B000FEE7FEE7FEE7FEE7311D000889010008C3
:1001C0002DE9F04D81EA030404F0004B21F00045D5
:1001D00014464FF0000A23F0004150EA050220D0F7
:1001E00054EA01021DD0C5F30A570246C5F31303B2
:1001F000C1F31300C1F30A5640F4801543F4801391
:10020000A7EB0608101BD64608F2FD3873EB050075
:1002100002D308F1010801E092185B41B8F1000F28
:1002200003DA00200146BDE8F08D00204FF4801174
:10023000064684460EE0171B73EB050705D3121B19
:1002400063EB050306434CEA010C49084FEA300012
:1002500092185B4150EA0107EDD152EA030012D037
:1002600082EA040083EA0501084305D0101BAB4174
:1002700006D20122002306E000224FF0004302E0F4
:100280006FF0010253101AEB06004CEB085110EB13
:100290000A0041EB0B01BDE8F04D00F070B80EB55F
:1002A000C10F80EAE0700844CA07002140F23343DE
:1002B0008DE80E000A460B4600F070F803B000BD52
:1002C00030B5041E71F1000404DB4FF000444042DD
:1002D00064EB0101141E73F1000405DB1C464FF0B2
:1002E0000043524263EB04038B4208BF824230BD9D
:1002F00030B50B46014600202022012409E021FAF6
:1003000002F59D4205D303FA02F5491B04FA02F5F2
:100310002844151EA2F10102F1DC30BD2DE9F05F89
:100320000546002092469B46884606468146402464
:100330001BE0284641464746224600F0E8F953466E
:100340005A46C01A914110D311461846224600F071
:10035000CFF92D1A67EB01084F46224601200021F4
:1003600000F0C6F917EB00094E41201EA4F101046C
:10037000DFDC484631462A464346BDE8F09F10B5CB
:10038000141E73F1000408DA401C41F100019218B8
:100390005B411A4301D120F0010010BD2DE9F04D61
:1003A00092469B4611B1B1FA81F202E0B0FA80F2B6
:1003B0002032904600F09CF904460F4640EA0A00BD
:1003C00041EA0B0153465A46084313D0114653EAFB
:1003D000010019D0C8F14002504600F098F90546D6
:1003E0000E4650465946424600F082F9084305D071
:1003F000012004E020463946BDE8F08D0020054389
:1004000046EAE0762C4337430A986305E40AA0EBFA
:1004100008000022FD0A44EA47540A3002D50020B1
:100420000146E9E7010510196941DDE908450019B0
:100430006941BDE8F04DA2E72DE9FE4F804681EA13
:100440000300C00F0C46009021F0004123F000454E
:10045000B8EB0200A94105D24046214690461C4611
:100460000B46024623F00040104347D0270DC7F348
:100470000A00C3F30A510290401A019040286BDA37
:10048000C3F3130040F4801B0098924620B1002370
:10049000D2EB030A63EB0B0B01985946C0F1400203
:1004A000504600F025F906460D4650465946019A39
:1004B00000F03DF910EB08006141002487EA115279
:1004C00084EAE7731A4340D0009A62B3019A012A82
:1004D0004FEA075215DC001B61EB02014FF00042AE
:1004E00002EA0752CDE90042001C41F58011324674
:1004F0002B46FFF753FF03B0BDE8F08F404621467F
:10050000F9E7001B61EB0201001C41F580130018A4
:100510005B412018A2F5001747EB030140EAD570B4
:10052000B6196D4111E06D084FEA360645EAC0750F
:100530004FEA0752001B61EB0201001C41F58011DC
:1005400049084FEA30000019514132462B4603B0AA
:10055000BDE8F04FFFF713BF0098012240000023D1
:10056000D0EB020263EBE073009821464FEAE0749F
:10057000B8EB000061EB0401E9E783F000435BE7BF
:1005800081F0004158E72DE9FE4F81EA030404F0B1
:10059000004421F0004100944FF0000B23F0004391
:1005A00050EA01045ED052EA03045BD0C3F30A545C
:1005B000C1F30A552C44A4F2F3340194A0FB025475
:1005C000C1F3130141F48011C3F3130343F4801307
:1005D00001FB024400FB034E840A970A44EA81545B
:1005E00047EA8357A4FB076802958D0A05FB078538
:1005F0004FEA932C04FB0C542705029D4FEA065842
:1006000047EA1637B5EB08056EEB070C870E920E1E
:1006100047EA811742EA8312A7FB0201B6EB0B01FE
:1006200064EB00042B0D43EA0C335E1844EB1C50C2
:10063000DA465146E7FB0201C5F313044FEA0B33D8
:1006400043EA14534FEA0432019C43EA0603A4F13F
:100650000C040294009CCDE900B4FFF79FFE03B0A8
:10066000BDE8F08F00200146F9E7C1F30A52C1F35B
:10067000130140F2FF3341F480119A4202DA002064
:100680000146704740F233439A42A2F2334202DC01
:10069000524200F03CB800F02BB8000030B5041E08
:1006A00071F1000404DB4FF00044404264EB0101AF
:1006B000141E73F1000405DB1C464FF00043524248
:1006C00063EB0403994208BF904230BD064C074DCE
:1006D00006E0E06840F0010394E807009847103412
:1006E000AC42F6D3FFF754FDE42C0008042D0008BB
:1006F000202A04DB203A00FA02F1002070479140E2
:10070000C2F1200320FA03F3194390407047202AD6
:1007100004DB203A21FA02F00021704721FA02F3AB
:10072000D040C2F120029140084319467047202A68
:1007300006DBCB17203A41FA02F043EAE07306E009
:1007400041FA02F3D040C2F1200291400843194619
:100750007047FEE77047000010B518488CB00024C1
:10076000016841F00101016000684FF0804100F034
:1007700001000A901248C0E900144FF6FF71C0E969
:100780000241046100F0B4FD4FF48050049004A9CC
:100790000B4800F021FE089408A90948099400F0CC
:1007A00075FD022000900120CDE901040022694678
:1007B0000348039400F01AFF0CB010BD403802400B
:1007C0003400002031B500F037F9009C0546B4F143
:1007D000FF3F18BF641C00F02FF9401BA042FAD362
:1007E00038BD00002DE9F84F0022874EDFF81CE2EB
:1007F00001274FF0030A4FF00F0800BF0B6807FAFC
:1008000002F42340A34240F0F880D1F804C0BCF1C8
:10081000020F18BFBCF1120F15D14FEAD20C00EB3A
:100820008C0CDCF820504FEA42794FEAD96908FA7B
:1008300009FB25EA0B05D1F810B00BFA09F949EAD2
:100840000505CCF82050D0F800904FEA420C91F802
:1008500004B00AFA0CF50BF0030B29EA05090BFAB0
:100860000CFB4BEA0909C0F80090D1F80490B9F1EB
:10087000010F18BFB9F1020F05D0B9F1110F18BF60
:10088000B9F1120F18D1D0F80890D1F80CB029EABC
:1008900005090BFA0CFB4BEA0909C0F80890D0F8DF
:1008A000049029EA040491F80490C9F3001909FAA4
:1008B00002F949EA04044460C468AC438D6805FA4F
:1008C0000CFC4CEA040CC0F80CC0D1F804C01CF0BD
:1008D000805F7DD0D6F800C04CF4804CC6F800C0D4
:1008E000D6F800C00CF4804CCDF800C022F0030C08
:1008F0000CF1804505F59835D5F808C89407240F04
:1009000008FA04F92CEA090CA0F18049B9F500397C
:1009100038D0A0F18049B9F5013908BF4FF001097D
:1009200030D0A0F18049B9F5023908BF4FF0020973
:1009300028D0A0F18049B9F5033908BF4FF0030969
:1009400020D0A0F18049B9F5043908BF4FF004095F
:1009500018D0A0F18049B9F5053908BF4FF0050955
:1009600010D0A0F18049B9F5063908BF4FF006094B
:1009700008D0A0F18049B9F507390CBF4FF007093D
:100980004FF0080909FA04F444EA0C0CC5F808C849
:10099000DEF800C04C682CEA030C14F4803F18BF4A
:1009A0004CEA030CCEF800C0194CD4F800C04D68D6
:1009B0002CEA030C15F4003F18BF4CEA030CC4F8F2
:1009C00000C0144CD4F800C04D682CEA030C00E0C1
:1009D00013E015F4801F18BF4CEA030CC4F800C0E4
:1009E0000D4CD4F800C04D682CEA030C15F4001F20
:1009F00018BF4CEA030CC4F800C0521C102AFFF4C4
:100A0000FDAEBDE8F88F000044380240003C0140D4
:100A1000043C0140083C01400C3C01400069084096
:100A200018BF012070474269514041617047002A58
:100A300008BF0904816170470148006870470000E1
:100A40002800002002480168491C0160704700002E
:100A5000280000200B4810B5016841F400710160C6
:100A6000016841F480610160016841F480710160B6
:100A7000032000F08FF8002000F006F800F018F8CE
:100A8000002010BD003C024010B5044607484FF45A
:100A90007A720068B0FBF2F000F0DCFB0022214625
:100AA000501E00F045F8002010BD00002C00002072
:100AB00010B5052000F06EF8002211466FF00B0013
:100AC00000F036F8002211466FF00A0000F030F80E
:100AD000002211466FF0090000F02AF800221146AA
:100AE000501F00F025F800221146101F00F020F8DA
:100AF00000221146901E00F01BF800221146501EE5
:100B000000F016F800221146052000F011F8BDE8AB
:100B100010400520AFF3008000F01F01012202FA0F
:100B200001F14009800000F1E020C0F80011704799
:100B3000174B10B41B68C3F30223C3F1070CBCF1BD
:100B4000040F88BF4FF0040C1C1D072C34BF00237A
:100B5000DB1E012404FA0CFCACF1010C0CEA0101CF
:100B6000994004FA03F35B1E1A40114300284FEA30
:100B70000111A1BF00F1E02080F8001410BC704703
:100B800000F00F0000F1E02080F8141D10BC704749
:100B90000CED00E0074900F007000A684FF6FF037C
:100BA0001A4042EA002040F0FD7040F0806008608A
:100BB000704700000CED00E02DE9F05F5F4F064646
:100BC0008946386801F0FF0A00F00F00484506D258
:100BD00087F800A0386800F00F00484540D1307811
:100BE000574D10F0020F05D02868B16820F0F000D2
:100BF00008432860307810F0010F65D070685149C3
:100C0000012825D0022818BF0328096825D011F033
:100C1000020F65D0296821F0030108432860FFF71F
:100C20000BFF0446706841F28838012819D0022869
:100C300027D00328286834D010F00C0F44D000BF10
:100C4000FFF7FAFE001B40453AD90320BDE8F09FAC
:100C5000096811F4003FDDD142E011F0007FD9D1E5
:100C60003EE0286800F00C0004282DD0FFF7E4FED9
:100C7000001B4045E9D8286800F00C000428F5D195
:100C800022E0286800F00C0008281DD0FFF7D4FEF1
:100C9000001B4045D9D8286800F00C000828F5D181
:100CA00012E04FF00C0B3BEA00000DD0FFF7C4FE42
:100CB000001B4045C9D828683BEA0000F6D103E094
:100CC000286810F00C0FBBD1386800F00F00814588
:100CD00009D287F800A0386800F00F00484502D01C
:100CE0000120BDE8F09F307810F0040F05D028688F
:100CF000F16820F4E05008432860307810F0080FC5
:100D000006D02868316920F4604040EAC1002860BC
:100D100000F05AF82968F02292FAA2F201F0F001EC
:100D2000B2FA82F2D140084A515CC84007490860D3
:100D30000020FFF7A9FE0020BDE8F09F003C024024
:100D40000838024000380240CC2C00082C0000205B
:100D500001490120C864704700004742014800680B
:100D6000704700002C000020084809490068096805
:100D70004FF4E05292FAA2F201F4E051B2FA82F298
:100D8000D140044A515CC840704700002C0000204C
:100D900008380240DC2C0008084809490068096846
:100DA0004FF4604292FAA2F201F46041B2FA82F288
:100DB000D140044A515CC840704700002C0000201C
:100DC00008380240DC2C00082048006810F00C01B4
:100DD0001F4808BF7047DFF87CC0042904BF604685
:100DE0007047082918BF704710B41B4B196801F0F1
:100DF0003F02196811F4800F47F6C0710BD0BCFB9D
:100E0000F2F01A680A4091FAA1F1B1FA81F122FADE
:100E100001F148430AE0B0FBF2F01A680A4091FA87
:100E2000A1F1B1FA81F122FA01F1484319684FF4B6
:100E3000403292FAA2F201F44031B2FA82F2D14089
:100E4000491C4900B0FBF1F010BC70470838024063
:100E50000024F40000127A00043802402DE9F84F13
:100E600004460078E14FE24D10F0010F56D038688B
:100E700000F00C00042809D0386800F00C000828A5
:100E80000DD1281D006810F4800F08D0286810F4D8
:100E9000003F43D06068002800F0A5813EE0606814
:100EA000B0F5803F19D0B0F5A02F28680CBF40F4F2
:100EB000802020F48030286028680CBF40F4803007
:100EC00020F4802028606068B8B1FFF7B5FD0646C1
:100ED000286810F4003F05D020E0286840F48030F6
:100EE0002860F0E7FFF7A8FD801B642800F2258149
:100EF000286810F4003FF5D010E0FFF79DFD06468E
:100F0000286810F4003F09D0FFF796FD801B642885
:100F100000F21381286810F4003FF5D12078DFF843
:100F2000D48210F0020F4FF0000958D038684FF00B
:100F3000F80A10F00C0F16D0386800F00C000828E2
:100F400004D1AD48006810F4800F0CD0E06890B375
:100F50000120C8F80000FFF76FFD0646286810F072
:100F6000020F13D01BE0286810F0020F1CBFE068CE
:100F7000012840F0388128689AFAAAF22169B2FA69
:100F800082F220F0F8009140084312E0FFF754FD90
:100F9000801B02287DD8286810F0020FF6D0286840
:100FA0009AFAAAF220F0F8012069B2FA82F290408F
:100FB0000843286013E0FFE7C8F80090FFF73CFD06
:100FC0000646286810F0020F09D000BFFFF734FD75
:100FD000801B02285DD8286810F0020FF6D1207817
:100FE00010F0080F2AD08548854E616999B101211A
:100FF0000160FFF721FD8246306810F0020F1DD11D
:10100000FFF71AFDA0EB0A00022842D8306810F062
:10101000020FF5D012E0C0F80090FFF70DFD8246F8
:10102000306810F0020F09D0FFF706FDA0EB0A00B0
:1010300002282ED8306810F0020FF5D1207810F079
:10104000040F63D06F48016841F08051016000686F
:101050006D4E00F080500090306840F48070306039
:10106000FFF7EAFC8246306810F4807F0AD100BFA7
:10107000FFF7E2FCA0EB0A0002285ED8306810F40B
:10108000807FF5D0A068614E01281DD0052830680A
:1010900000E052E00CBF40F0040020F0010030609E
:1010A00030680CBF40F0010020F00400C6F80000DA
:1010B000A06841F2883BB8B1FFF7BEFC82463068B9
:1010C00010F0020F05D021E0306840F001003060E0
:1010D000EEE7FFF7B1FCA0EB0A0058452DD83068C9
:1010E00010F0020FF5D011E0FFF7A6FC8246306841
:1010F00010F0020F0AD000BFFFF79EFCA0EB0A0021
:1011000058451AD8306810F0020FF5D1A069E0B345
:10111000396801F00C01082965D00228C8F86090F0
:101120000ED0FFF789FC0446286810F0007F57D0E6
:10113000FFF782FC001B02284ED90320BDE8F88F80
:10114000FFF77AFC0646286810F0007F09D000BF40
:10115000FFF772FC801B0228EFD8286810F0007F90
:10116000F6D1D4E9070140EA010247F6C07191FACD
:10117000A1F1606AB1FA81F18840A16A4FF0FF33B2
:1011800003EB51014FF4403300E029E093FAA3F35D
:10119000B3FA83F39940084310434FF0706292FA18
:1011A000A2F2E16AB2FA82F2914001431248016070
:1011B0000120C8F86000FFF73FFC0446286810F0E3
:1011C000007F0DD1FFF738FC001B0228B5D8286836
:1011D00010F0007FF6D003E0286810F0007FA7D160
:1011E0000020BDE8F88F0120BDE8F88F08380240E4
:1011F000003802400000474204380240800E474257
:10120000743802404038024000700040703802409C
:101210004FF0E021042808690CBF40F0040020F0E2
:101220000400086170470000074800680749096822
:10123000B0FBF1F201FB1200002818BF704720211B
:101240000348FFF7F0BB000028000020000000204A
:1012500000200240411EB1F1807F24BF0120704771
:101260004FF0E0204161054AF02182F8141D002171
:101270008161072101610020704700000FE000E05C
:1012800010B5FFF7D1FF10BD7047704790F83820B8
:10129000012A04BF0220704710B4012280F83820D0
:1012A000022380F839300368D3F804C02CF0700CA6
:1012B000C3F804C00368D3F804C00C684CEA040CFB
:1012C000C3F804C00368D3F808C02CF0800CC3F83E
:1012D00008C00368D3F808C049684CEA0101996066
:1012E00080F83920002180F8381010BC084670477B
:1012F000002804BF0120704710B5044690F839005B
:1013000028B9002084F83800204600F00DF80220AB
:1013100084F83900211D206800F03CFD012084F88C
:101320003900002010BD00002049884218BF7047D6
:1013300070B51F4886B00026016841F001010160C8
:10134000006800F0010005901A48016841F00101B1
:101350000160016801F001010591016841F48071AB
:1013600001600068022500F4807005904FF4004091
:1013700000900124CDE9015469460F480494FFF719
:1013800031FA2020CDE90004049669460B48CDE9E6
:101390000245FFF727FA002211461C20FFF7C8FB81
:1013A0001C20FFF7B9FB06B070BD00003400002020
:1013B0004038024030380240000002400020024025
:1013C0000168CA6842F00102CA600068016841F021
:1013D000010101600020704790F83820012A0DBFFC
:1013E0000220012380F83830704730B4022280F8A0
:1013F00039200268D2F808C02CF0770C2CF47F4C0E
:10140000C2F808C00A68502A41D00CDC202A77D0E4
:1014100004DC002A75D0102A74D0B1E0302A72D0D2
:10142000402A72D0ACE0602A4ED0702A0BD0B2F5C0
:10143000805F03D0B2F5005F17D0A1E001688A6831
:1014400022F007023EE00268D1F804C08C68C96847
:1014500095684CEA012125F47F4521432943916099
:1014600001688A6842F077022CE00268D1F804C073
:101470008C68C96895684CEA012125F47F452143B1
:101480002943916001688A6842F480421AE0026848
:10149000D1F804C0C968146A156A25F001051562FF
:1014A000956924F00A0425F0F00545EA011144EAA3
:1014B0000C0C9161C2F820C001688A6822F07002A9
:1014C00042F057028A605BE00268D1F804C0CC6841
:1014D000116A21F0100111629569116A25F47045B5
:1014E00045EA043421F0A00141EA0C119461116233
:1014F00001688A6822F0700242F067028A603FE069
:101500002FE01EE025E034E0FFE70268D1F804C0D8
:10151000CC68116A156A25F001051562956921F0FC
:101520000A0125F0F00545EA041441EA0C01946132
:10153000116201688A6822F0700242F047028A60F4
:101540001EE001688A6822F0700242F007028A6099
:1015500016E001688A6822F0700242F017028A6081
:101560000EE001688A6822F0700242F027028A6069
:1015700006E001688A6822F0700242F037028A6051
:1015800080F83930002180F8381030BC08467047A8
:1015900070B5134C617800250126C9B16178012925
:1015A00018BF70BD002100F0F7F960606068A168A5
:1015B000401AE168C1EB014108440A4948602670BD
:1015C0006570BDE870404FF400710748FFF72BBA13
:1015D000002100F0E1F9A060E560667070BD0000D8
:1015E0001800002000000020001C024090F8383055
:1015F000012B04BF022070472DE9F0034FF0010CCE
:1016000080F838C0022380F83930F024002A36D020
:101610002302042A7ED0082A02687CD0D1E9006522
:10162000CC68176A27F480571762D769D2F82080F0
:1016300027F4407747EA052503EA043325F470458B
:101640002B434FF4204528F4204405EA06352C436B
:10165000D36114620268D36923F44063D3610268E2
:10166000D369896843EA0121C2F81C1080F839C0A7
:10167000002180F83810BDE8F00308467047026882
:10168000D1E90068CD68136A23F0010313629369FE
:10169000176AA2F18049B9F5803918BFB2F1804FBD
:1016A00021D0A2F18049B9F580691CBFA2F180491F
:1016B000B9F5006917D0A2F18049B9F540691CBF9E
:1016C000A2F18049B9F582390DD0A2F18049B9F56E
:1016D000A0391FBFA2F18049B9F5C05923F0030317
:1016E00043F0010303D123F0030343EA080304EAB0
:1016F000051423F0F003234327F00A0406F00A053B
:101700002C43936114620268936923F00C03936184
:10171000026801E004E02BE093698968194325E041
:101720000268D1E90046CD68176A27F010071762F2
:101730009769D2F8208027F4407747EA062603EA23
:10174000053326F470463343A02628F0A00506EAA8
:1017500004142C43936114620268936923F4406378
:10176000936102689369896843EA012191617DE789
:10177000D1E90063CD68176A27F480771762D769CB
:10178000D2F8208027F0030704EA05143B4323F036
:10179000F00323434FF4206528F4206405EA06256E
:1017A0002C43D36114620268D36923F00C03D36124
:1017B0000268D3698968194356E70268002904BFA3
:1017C000D36843F0020311D0042904BFD36843F067
:1017D00004030BD0082904BFD36843F0080305D0E5
:1017E0000C2904BFD36843F0100300D1D360026812
:1017F000012303FA01F1136A8B431362136A19433D
:1018000011620068016841F0010101600020704729
:1018100070B50446006801694FF0000511F0020F31
:101820001CBFC16811F0020F13D06FF002010161FB
:10183000012020762068806910F0030F204602D036
:10184000FFF7A6FE04E000F099F8204600F097F8B4
:1018500025762068016911F0040F1CBFC16811F0E2
:10186000040F13D06FF0040101610220207620687C
:10187000806910F4407F204602D0FFF789FE04E023
:1018800000F07CF8204600F07AF82576206801699F
:1018900011F0080F1CBFC16811F0080F13D06FF0D2
:1018A00008010161042020762068C06910F0030F50
:1018B000204602D0FFF76CFE04E000F05FF82046FF
:1018C00000F05DF825762068016911F0100F1CBF4B
:1018D000C16811F0100F13D06FF0100101610820E2
:1018E00020762068C06910F4407F204602D0FFF7C0
:1018F0004FFE04E000F042F8204600F040F8257664
:101900002068016911F0010F1CBFC16811F0010FBF
:1019100005D06FF001010161204600F031F8206828
:10192000016911F0800F1CBFC16811F0800F05D054
:101930006FF0800101612046FFF7A6FC2068016975
:1019400011F0400F1CBFC16811F0400F05D06FF0BF
:1019500040010161204600F041F82068016911F062
:10196000200F1ABFC16811F0200F70BD6FF0200169
:1019700001612046BDE87040FFF787BC70477047A3
:1019800004484178012918BF7047C168491CC160EB
:10199000704700001800002090F838300022012B1A
:1019A00004BF02207047012380F83830002904BFAB
:1019B00001684A6B0DD0042904BF01688A6B08D006
:1019C000082904BF0168CA6B03D00C2904BF016851
:1019D0000A6C002180F838101046704770470028C4
:1019E00004BF0120704770B5044690F83900002507
:1019F00020B984F83850204600F022F8242084F8DA
:101A000039002068C16821F40051C160204600F00F
:101A100021FA2068016921F490410161206841693F
:101A200021F02A0141612068C16841F40051C16080
:101A3000E563202084F8390084F83A00002070BD66
:101A400070B5006886B0A0F18041B1F588311CBF47
:101A500006B070BD00241048016841F0100101601B
:101A600000680E4E00F0100005904020009002200B
:101A7000CDE9024007250190694604953046FEF7FE
:101A8000B1FE8020CDE900046946304604950294F9
:101A9000FEF7A8FE06B070BD4438024000040240C4
:101AA0002DE9F84F044690F839001D4617460E46BA
:101AB00020287BD1002E12BF002F0120BDE8F88F17
:101AC00094F8380001287DD0012084F838004FF0C8
:101AD000000AC4F83CA0212084F83900FEF7ACFFCE
:101AE000A7848046E784E08C4FF02009002854D07A
:101AF000E08C401EE084A0684FF08007B0F5805F66
:101B00002068006827EA00001FD000283ED000BFF0
:101B1000B5F1FF3F35D02DB1FEF78EFFA0EB0801E8
:101B2000A9422ED92068C16821F4D071C160206813
:101B3000416921F00101416184F8399084F83A90BB
:101B400084F838A00320BDE8F88F78B1B5F1FF3FE5
:101B500007D0002DE6D0FEF76FFFA0EB0801A942E9
:101B6000E0D82068006837EA0000EFD130882168AB
:101B7000C0F308004860206900280CBFB61C761C22
:101B800008E02068006837EA0000C1D1216816F833
:101B9000010B4860E08C0028AAD143460022402176
:101BA0002046009500F0F8FA002800E00AE01CBF8B
:101BB0000320BDE8F88F84F8399084F838A000201D
:101BC000BDE8F88F0220BDE8F88FFEE710B50A4C9B
:101BD00001212046FEF722FF20B901212046FEF711
:101BE0001DFF08B1002010BD01212046FEF716FFA1
:101BF0000028F9D0012010BD0010024010B50C4C97
:101C000002212046FEF70AFF38B91420FEF7DAFD5C
:101C100002212046FEF702FF08B1002010BD02217C
:101C20002046FEF7FBFE0028F9D0012010BD000081
:101C300000100240F0B5244887B0016841F08001EF
:101C40000160016801F080010591016841F0100117
:101C50000160016801F010010591016841F0100177
:101C600001600068194E00F01000059000224FF44A
:101C700000713046FEF7DBFE154F0022202138466A
:101C8000FEF7D5FE002240213846FEF7D0FE701543
:101C90000124CDE900040225694603953046FEF78C
:101CA000A1FD2020CDE90004694603953846FEF7E2
:101CB00099FD4020CDE90004694603953846FEF7BA
:101CC00091FD07B0F0BD000030380240001C02401A
:101CD000001002400D4882B00021026842F002026A
:101CE000026000680A4A00F00200009009480260A1
:101CF0004FF4E132C0E901210C22C160C0E90412B5
:101D00008161C16102B0FFF76ABE00003038024055
:101D10000010014070000020FEE7704770477047D8
:101D2000704710B5FEF78EFEBDE81040FFF7A8BA69
:101D30000F48016841F4700101600E48016841F0EC
:101D4000010101600C4A00211160026822F4102296
:101D500022F080720260031D084A1A60026822F4B1
:101D600080220260064801600649580608607047F4
:101D700088ED00E0003802400838024010300024AE
:101D80000C38024008ED00E00148FFF741BD0000BB
:101D900034000020F0B40268294B2A4C2A4D2B4E07
:101DA000DFF8ACC0984218BFB0F1804F07D0A04216
:101DB00018BFA84203D0B04218BF604503D14F6896
:101DC00022F070023A43984218BFB0F1804F25D0FC
:101DD000A04218BFA84221D0B04218BF60451DD014
:101DE000A0F18044B4F5A0341CBFA0F18044B4F548
:101DF000A23413D0A0F18044B4F5A4341CBFA0F1E8
:101E00008044B4F5C05409D0A0F18044B4F5E05446
:101E10001CBFA0F18044B4F5005403D1CC6822F477
:101E20004072224302608A68C2620A6882629842F3
:101E300012BF60450969016301214161F0BC70472F
:101E4000000001400004004000080040000C004079
:101E5000000401402DE9F041044600680169E26890
:101E600021F44051114301612068C1682369A268CF
:101E7000D4F81CC01A43636921F4037143EA0C03CC
:101E800021F414411A431143C16020684169A269D9
:101E900021F4407111434161E2693226B2F5004FED
:101EA000BA48BB49BB4D22685DD08A4218BF824206
:101EB00040F01281FEF770FF00EBC00101EB001053
:101EC00061688900B0FBF1F7FEF766FF00EBC00127
:101ED00001EB001061688900B0FBF1F0A5FB001078
:101EE00040096FF01801484307EB800006EB001033
:101EF000A5FB0010400900F0F007FEF74DFF00EBD6
:101F0000C00101EB001061688900B0FBF1F0A5FB96
:101F10000010400907EB0017FEF73EFF00EBC00181
:101F200001EB001061688900B0FBF1F8FEF734FFA7
:101F300000EBC00101EB001061688900B0FBF1F01B
:101F4000A5FB001040096FF01801484308EB800022
:101F500006EB0010A5FB00102168C0F343103844C5
:101F60008860BDE8F0818A4218BF824259D1FEF7ED
:101F700013FF00EBC00101EB001061684900B0FBEA
:101F8000F1F0A5FB001040090701FEF705FF00EB8B
:101F9000C00101EB001061684900B0FBF1F8FEF7E9
:101FA000FBFE00EBC00101EB001061684900B0FBD3
:101FB000F1F0A5FB001040096FF01801484308EB51
:101FC000800006EBC000A5FB0010400900F0F800FF
:101FD00007EB4007FEF7E0FE00EBC00101EB00104D
:101FE00061684900B0FBF1F8FEF7D6FE00EBC001D6
:101FF00001EB001061684900B0FBF1F0A5FB001097
:1020000040096FF01801484308EB800006EBC00060
:10201000A5FB00102168C0F3421038448860BDE879
:10202000F081FEF7A1FE00EBC00101EB001061683A
:102030004900B0FBF1F0A5FB001040090701FEF7D5
:1020400093FE00EBC00101EB001061684900B0FB9A
:10205000F1F8FEF789FE00EBC00101EB00106168AA
:102060004900B0FBF1F0A5FB001040096FF018012A
:10207000484308EB800006EBC000A5FB00104009B8
:1020800000F0F80007EB4007FEF76EFE00EBC00122
:1020900001EB001061684900B0FBF1F8FEF764FE47
:1020A00000EBC00101EB001061684900B0FBF1F0EA
:1020B000A5FB001040096FF01801484308EB8000B1
:1020C00006EBC000A5FB00102168C0F342103844A5
:1020D0008860BDE8F08100BFFEF746FE00EBC0015E
:1020E00001EB001061688900B0FBF1F7FEF73CFEE0
:1020F00000EBC00101EB001061688900B0FBF1F05A
:10210000A5FB001040096FF01801484307EB800061
:1021100006EB0010A5FB0010400900F0F007FEF7E9
:1021200023FE00EBC00101EB001061688900B0FBE9
:10213000F1F0A5FB0010400907EB0017FEF714FEB5
:1021400000EBC00101EB001061688900B0FBF1F801
:10215000FEF70AFE00EBC00101EB00106168890088
:10216000B0FBF1F0A5FB001040096FF018014843E7
:1021700008EB800006EB0010A5FB00102168C0F3FF
:10218000431038448860BDE8F0810000001401402D
:10219000001001401F85EB512DE9F0410446006815
:1021A000069E1F4600680D4631EA000023D000BF9E
:1021B000B6F1FF3F1AD026B1FEF73EFCC01BB0427D
:1021C00014D92068C16821F4D071C16020684169C8
:1021D00021F001014161202084F8390084F83A009F
:1021E000002084F838000320BDE8F08120680068F2
:1021F00035EA0000DCD10020BDE8F081FEE70000F8
:102200000FB4054B10B503A9044A029800F0CAF8B0
:1022100010BC5DF814FB0000D52A00083000002037
:1022200002E008C8121F08C1002AFAD1704770479F
:10223000002001E001C1121F002AFBD170470000FD
:102240002DE9FF5FDDE90220010DDDF838B0024322
:1022500018D044F61050A1F2FF3141430D140F98ED
:10226000012820D0A5EB0B00401C5FEA000A4FF0CC
:102270000004474EDFF81C91A046504616D5CAF11F
:10228000000728E00F98012443A2012808D000216C
:1022900000980F9BC0E90021C0E90243BDE8FF9F01
:1022A0006FEA0B01F4E7CBF10000DEE7074612E02E
:1022B000F80707D02246334640464946FEF763F901
:1022C000804689462246334610461946FEF75BF99A
:1022D00004460E467F10002FEAD1DDE90201BAF173
:1022E000000F42464B4602DAFEF74DF901E0FDF7DA
:1022F00067FF04460E460022284BFEF7CFF903D8AD
:102300004FF0FF30014607E00022254B20463146C2
:10231000FEF792F8FEF7A9F9102409E0002C0ADB79
:102320000A220023FDF7FAFF019B30321A55641E82
:1023300050EA0102F2D1641C019AC4F11103144461
:102340000F9A012A03D0012208430DD10AE0084365
:1023500004D000204FF0110B0F9080E7A3EB0B058A
:102360006D1E0DE05B4504DD4FF0000205F1010537
:1023700004E003DA4FF00002A5F10105002AECD0D9
:1023800000980F99C0E90231C0E9004586E70000D6
:10239000000024400000F03F300000000000F04347
:1023A0000000E03F2DE9FF4F95B09B468946064669
:1023B00000250FE2252877D100242746F84A01217D
:1023C000059400E0044316F8013F203B01FA03F0B6
:1023D0001042F7D130782A2811D06FF02F033078CF
:1023E000A0F13002092A16D8059A44F0020402EB43
:1023F000820203EB42021044761C0590EFE759F885
:10240000042B0592002A03DA504244F4005405904C
:1024100044F00204761C30782E2816D116F8010FED
:1024200044F004042A280DD06FF02F023078A0F178
:102430003003092B09D807EB870302EB4303C718C6
:10244000761CF3E759F8047B761C30786C280FD0A3
:1024500006DC4C2817D068280DD06A2814D104E077
:10246000742810D07A280FD10DE044F400140AE04B
:1024700044F4801401E044F440147278824202D1A2
:1024800004F58014761C761C307866280BD013DC9B
:10249000582877D009DC002875D04528F6D0462882
:1024A000F4D047281AD19DE118E0632835D064287C
:1024B00079D0652812D195E1702873D008DC67289F
:1024C000F1D069286FD06E280DD06F2806D1B5E005
:1024D00073282CD0752875D0782874D05A4617994F
:1024E00090476D1C75E1C4F30250022809D00328FF
:1024F0000DD0D9F8001004280DD00D6009F10409A1
:1025000067E1D9F80010EA17C1E90052F6E7D9F8F7
:1025100000100D80F2E70D70F0E719F8041B8DF83C
:10252000001000208DF80100EA46012003E059F870
:1025300004AB4FF0FF3061074FF0000102D40DE013
:1025400008F101018846B9420FDA8045F8DB1AF834
:1025500008100029F4D108E008F101018846814201
:10256000FADB1AF808100029F6D105985B46A0EBB3
:10257000080721463846179A00F094FA284400EBE1
:10258000080507E04DE029E10DE01AF8010B5A4675
:1025900017999047B8F10108F7D25B4621463846B3
:1025A000179A13E142E00A220092C4F302524FF05C
:1025B000000A022A08D059F804CB032A4FEAEC712A
:1025C0000AD00DE029E02AE009F1070121F0070215
:1025D000F2E802C1914609E00FFA8CFC4FEAEC7177
:1025E000042A03D14FFA8CFC4FEAEC71002907DA78
:1025F0000A460021DCF1000C61EB02012D2202E011
:10260000220504D52B228DF80420012203E0E207E5
:1026100001D02022F7E7904659E00A2102E010227B
:102620000DE010214FF0000A00910BE010224FF056
:10263000000A44F004040827009203E008224FF047
:10264000000A0092C4F30252022A05D059F804CBC2
:102650000021032A08D009E009F1070121F007024F
:10266000F2E802C1914605E01FFA8CFC042A01D170
:102670000CF0FF0C4FF00008220728D5702806D078
:10268000009B83F0100353EA0A0305D00EE04022BA
:102690008DF80420012208E05CEA010206D0302215
:1026A0008DF804208DF8050002229046009B83F0EF
:1026B000080353EA0A030AD15CEA010201D1620766
:1026C00005D530228DF804204FF001087F1E5828D0
:1026D00004D034A003900EA802900DE036A0F9E7D4
:1026E00053466046009AFDF719FE84460398825CC3
:1026F0000298401E029002705CEA0100F0D102983C
:1027000006A9081A00F1200A600702D524F48034D3
:1027100000E00127574502DDA7EB0A0000E000209A
:1027200000EB0A01009005984144401A0590E0032F
:1027300006D45B462146179A059800F0B3F9054484
:10274000002706E001A85A46C05D179990476D1C06
:102750007F1C4745F6DBE0030CD55B462146179A04
:10276000059800F09FF9054404E030205A46179977
:1027700090476D1C0099481E00900029F5DC08E088
:10278000029802995A460078491C0291179990477D
:102790006D1CBAF10001AAF1010AF1DC65E100004B
:1027A0000928010030313233343536373839616227
:1027B00063646566000000003031323334353637EB
:1027C00038394142434445460000000000F058F9C2
:1027D0000544761C307800287FF4ECAD19B028460B
:1027E000BDE8F08F620700D4062709F1070222F046
:1027F000070CFCE80223E14603F000485FEA080CFE
:1028000002D00FF2702C0DE05FEA045C02D50FF2EB
:10281000682C07E05FEAC47C02D00FF2602C01E074
:10282000AFF2700C4FF0FF3823F00043CDF850C0EA
:1028300065280CD006DC452809D046281DD047283D
:102840003DD13DE0662818D067287ED138E00021D0
:10285000112F01DB112000E0781CCDE9000106A951
:102860000EA8FFF7EDFCDDE90F010E9A03910021A0
:10287000009207F1010A04914DE04FF000400097EB
:10288000CDE9011006A90EA8FFF7DAFCDDE90F0279
:1028900003920E9B11990022DDF80CA00093049284
:1028A00011B9791C00EB010AB7EB0A0004D4C0F19E
:1028B000FF3007F1010A0490AAEB0700019044E001
:1028C000012F00DA01270021112F01DD112000E086
:1028D0003846CDE9000106A90EA8FFF7B1FCDDE9F5
:1028E0000F010E9A0391002104910092BA4621072C
:1028F0000CD40399514500DA8A46BAF1010F05DD7F
:10290000009AAAF10101515C302908D0B84202DADC
:1029100010F1040F06DA0121CDE9011015E0AAF14A
:102920000101E9E7002805DC049901440491AAEBC0
:10293000000102E0411C514500DD8A460499401A1D
:10294000401C01904FF000400290200704D40198F1
:10295000504501DBCDF8048000208DF84F0002982F
:102960000DF14F07B0F1004F25D02B200E900298AB
:102970004FF0020800280CDA404202902D200E9001
:1029800007E00A210298FDF7B3FC3031029007F806
:10299000011DB8F10001A8F10108F2DC029800283D
:1029A000EFD1791E0E980870307800F0200040F0CA
:1029B000450007F8020D12A8C01B00F10708149883
:1029C000007800B1012000EB0A01019801EBE071F1
:1029D00005984144401A401E0590E00306D45B462A
:1029E0002146179A059800F05DF805441498007880
:1029F00018B15A46179990476D1CE00324D55B46E1
:102A00002146179A059800F04DF805441CE00498FB
:102A1000002807DBDDE90301884203DD0098405C04
:102A2000179901E0179930205A469047049805F10C
:102A30000105401C04900198401E019004D12E20F5
:102A40005A46179990476D1CBAF10001AAF1010A84
:102A5000DDDC05E017F8010B5A46179990476D1C0D
:102A6000B8F10001A8F10108F4DC5B462146179A91
:102A70000598ABE62D0000002B00000020000000B0
:102A80002DE9F041044600251E461746880404D46B
:102A900005E039462020B0476D1C641EF9D5284654
:102AA000BDE8F0812DE9F041044600251E46904620
:102AB000C80301D5302700E02027880404D505E0AD
:102AC00041463846B0476D1C641EF9D52846BDE81E
:102AD000F081000013B54FF6FF73012269460348E9
:102AE000FEF7DEFF009802B010BD0000700000206D
:102AF0002DED068B92B0FDF7ADFF5F480026016813
:102B000041F080510160006800F0805011905B48F6
:102B1000016841F4804101600068022400F48040B3
:102B2000119001200090000401908001CDE9064041
:102B3000082008904FF4A870CDE9090407200B90F5
:102B40006846FEF78BF90F20CDE90C044FF4A05036
:102B5000CDE90E60E002109005210CA8FEF72CF8DC
:102B6000FEF7F6F8FEF7FAF84549B0FBF1F0FEF78C
:102B700071FB0420FEF74CFB00221146501EFDF7AE
:102B8000D7FFFFF757F8FFF7A5F8FDF7E5FD3DA0E4
:102B9000FFF736FBFEF7E8F83F4C4000A0603F48E7
:102BA000FEF70EFC00213D48FEF707FE4FF47A6069
:102BB00004F1180520602E706E709FED399B9FED1B
:102BC0003AABDFF8EC90354FDFF8E8B04FF0530840
:102BD0004FF0090A287801283DD1606868B1606823
:102BE000FDF75DFB41EC180BA068FDF758FB53ECBB
:102BF000182BFDF7E5FAC4E9040194ED040B53EC3E
:102C0000192B51EC100BFDF7DBFA41EC100B2AA04D
:102C100053EC102BFFF7F4FA94ED040B53EC1A2B42
:102C200051EC100BFDF74CFB38680AD8C0F828802F
:102C3000FEF79AF842001E490020E2FB09108009C5
:102C400007E0C0F828A0FEF78FF84000ABFB0010AB
:102C5000C008A0602E70FEF7B9FF012802D12068DD
:102C600064302060FEF7CAFF0128B3D120686438C1
:102C70002060AFE7000000004038024000700040D4
:102C8000A086010053544D333220CAE4C8EBB2B6DB
:102C9000BBF1CAB5D1E90A000000002034000020D1
:102CA0000000000000408F40000000000088C3408A
:102CB000C3300CC3CDCCCCCC3E3E46726571A3BABA
:102CC000252E346C66206B487A0A00000000000054
:102CD00000000000010203040607080900000000CC
:102CE00001020304042D000800000020340000004D
:102CF00020220008382D0008340000207C1000003D
:102D00003022000800000000000000000000000069
:102D100000000000000000000000000000010000B2
:102D200000000000000000000000000000000000A3
:082D30000024F4000000000083
:040000050800018965
:00000001FF
