:020000040800F2
:10000000081000209D0100086F0D0008C90C0008B1
:100010006D0D0008E5010008790E000800000000E1
:10002000000000000000000000000000750D000846
:10003000E701000800000000710D0008770D0008BE
:10004000B7010008B7010008B7010008B7010008B0
:10005000B7010008730D0008B7010008B7010008D8
:10006000B7010008B7010008B7010008B701000890
:10007000B7010008B7010008B7010008B701000880
:10008000B7010008B7010008B7010008B701000870
:10009000B7010008B7010008B7010008B701000860
:1000A000B7010008B7010008B7010008B701000850
:1000B000B7010008B7010008B7010008B701000840
:1000C000B7010008B7010008B7010008B701000830
:1000D000B7010008B7010008B7010008B701000820
:1000E000B7010008B7010008B7010008B701000810
:1000F000B7010008B7010008B7010008B701000800
:10010000B7010008B7010008B7010008B7010008EF
:10011000B7010008B7010008B7010008B7010008DF
:10012000B7010008B7010008B7010008B7010008CF
:10013000B7010008B7010008B7010008B7010008BF
:10014000B7010008B7010008B7010008B7010008AF
:10015000B7010008B7010008B7010008B70100089F
:10016000B7010008B7010008B7010008B70100088F
:10017000B7010008B7010008B7010008000000003F
:10018000B7010008B7010008DFF80CD000F018F83C
:1001900000480047990E00080810002006488047D4
:1001A00006480047FEE7FEE7FEE7FEE7FEE7FEE75C
:1001B000FEE7FEE7FEE7FEE7210E000889010008E2
:1001C000064C074D06E0E06840F0010394E80700A4
:1001D00098471034AC42F6D3FFF7DAFFF80E000868
:1001E000180F0008FEE7704731B500F019F9054611
:1001F000009CB4F1FF3F00D0641C00F011F9401BDB
:10020000A042FAD338BD00002DE9F84F0022DFF8F4
:10021000E481DFF8E491DFF8E4A14FF0030E0F274B
:10022000012303FA02F50B682B40AB427ED1D1F8D3
:1002300004C0BCF1020F02D0BCF1120F12D14FEA80
:10024000D20C00EB8C0CDCF820605407E40E07FAAB
:1002500004FB26EA0B06D1F810B00BFA04F4344381
:10026000CCF8204006684FEA420C0EFA0CF4A64384
:1002700091F804B00BF0030B0BFA0CFB4BEA0606EB
:1002800006604E68012E05D0022E03D0112E01D03B
:10029000122E11D18668A643D1F80CB00BFA0CFBD4
:1002A0004BEA06068660466826EA05050E79C6F31F
:1002B0000016964035434560C56825EA04048D68FC
:1002C00005FA0CFC4CEA040CC0F80CC0D1F804C0D0
:1002D0001CF0805F6FD0D8F800C04CF4804CC8F898
:1002E00000C0D8F800C00CF4804CCDF800C022F05B
:1002F000030C0CF1804404F59834D4F808C8950731
:100300002D0F07FA05F62CEA0606A0F1804CBCF585
:10031000003C56D0BCF5806C56D0BCF5806C56D0F5
:10032000BCF5806C56D0BCF5806C00E043E054D046
:10033000BCF5806C54D0BCF5806C54D0BCF5806C9E
:1003400054D04FF0080C0CFA05FC4CEA060CC4F82B
:1003500008C8D9F800C02CEA030C4C6814F4803F9C
:1003600001D04CEA030CC9F800C0254CD4F800C0F9
:100370002CEA030C4D6815F4003F01D04CEA030C45
:10038000C4F800C0DAF800C02CEA030C4C6814F47E
:10039000801F01D04CEA030CCAF800C0194CD4F8F5
:1003A00000C02CEA030C4D6815F4001F01D04CEA84
:1003B000030CC4F800C0521C102AFFF431AFBDE892
:1003C000F88F4FF0000CBEE74FF0010CBBE74FF089
:1003D000020CB8E74FF0030CB5E74FF0040CB2E79E
:1003E0004FF0050CAFE74FF0060CACE74FF0070CF1
:1003F000A9E7000044380240003C0140083C0140AD
:10040000043C01400C3C014042695140416170474D
:10041000002A01D0816170470904816170470000A2
:100420000148006870470000000000200248016891
:10043000491C0160704700000000002010B50B4807
:10044000016841F400710160016841F4806101605C
:10045000016841F480710160032000F091F80020F0
:1004600000F006F800F018F8002010BD003C024033
:1004700010B5044607484FF47A720068B0FBF2F0FA
:1004800000F00AFC00222146501E00F045F8002032
:1004900010BD00000400002010B5032000F070F82B
:1004A000002211466FF00B0000F036F800221146D2
:1004B0006FF00A0000F030F8002211466FF00900DA
:1004C00000F02AF800221146501F00F025F8002203
:1004D0001146101F00F020F800221146901E00F077
:1004E0001BF800221146501E00F016F8002211469B
:1004F000052000F011F8BDE810400520AFF30080A2
:1005000000F01F01012202FA01F14009800000F110
:10051000E020C0F80011704710B4184B1B68C3F3FB
:100520000223C3F1070CBCF1040F01D94FF0040CF6
:100530001C1D072C01D2002300E0DB1E012404FA5D
:100540000CFCACF1010C0CEA0101994004FA03F334
:100550005B1E1A401143002808DA00F00F0000F17A
:10056000E020090180F8141D10BC704700F1E02064
:10057000090180F8001410BC704700000CED00E089
:1005800000F00700064A11684FF6FF03194041EAE0
:10059000002040F0FD7040F0806010607047000067
:1005A0000CED00E02DE9F05F04460E46DFF8D09137
:1005B000D9F80000F7B200F00F00B0420AD289F873
:1005C0000070D9F8000000F00F00B04202D0012006
:1005D000BDE8F09F2078DFF8AC8110F0020F07D063
:1005E000D8F80000A16820F0F0000843C8F8000027
:1005F000207810F0010F51D060686349012808D0BD
:1006000002280DD003280BD0096811F0020F2ED05C
:100610000AE0096811F4003F06D10120BDE8F09F0F
:10062000096811F0007F1FD0D8F8001021F00301F5
:100630000843C8F80000FFF7F3FE0546606841F282
:10064000883A012816D0022829D003283CD0D8F8AF
:10065000000010F00C0F51D0FFF7E2FE401B504598
:1006600047D90320BDE8F09F0120BDE8F09F01209D
:10067000BDE8F09FD8F8000000F00C0004283DD041
:10068000FFF7CEFE401B504502D90320BDE8F09F86
:10069000D8F8000000F00C000428F1D12EE0D8F8C2
:1006A000000000F00C00082828D0FFF7B9FE401B1E
:1006B000504502D90320BDE8F09FD8F8000000F0B3
:1006C0000C000828F1D119E0D8F800004FF00C0B0D
:1006D0003BEA000012D0FFF7A3FE401B504502D9B1
:1006E0000320BDE8F09FD8F800003BEA0000F2D1FB
:1006F00004E0D8F8000010F00C0FADD1D9F80000DC
:1007000000F00F00B0420AD989F80070D9F8000053
:1007100000F00F00B04202D00120BDE8F09F207829
:1007200010F0040F07D0D8F80000E16820F4E05082
:100730000843C8F80000207810F0080F08D0D8F857
:100740000000216920F4604040EAC100C8F80000C0
:1007500000F02CF8D8F80010F02292FAA2F201F082
:10076000F001B2FA82F2D140084A515CC84008490F
:1007700008600020FFF77CFE0020BDE8F09F00002D
:10078000003C02400838024000380240E80E0008F1
:100790000400002001490120C8647047000047425E
:1007A00001480068704700000400002010B41F4892
:1007B000006810F00C011E481BD04FEA600C0429A1
:1007C00016D0082915D11B4A116801F03F011368A2
:1007D00013F4800F47F6C0730DD0BCFBF1F0116825
:1007E000194093FAA3F3B3FA83F3D94048430CE0DA
:1007F000604610BC7047B0FBF1F01168194093FAE5
:10080000A3F3B3FA83F3D940484311684FF440325D
:1008100092FAA2F201F44031B2FA82F2D140491CBC
:100820004900B0FBF1F010BC7047000008380240EE
:100830000024F400043802402DE9F84F0446DFF8A4
:100840001C842078A8F1040710F0010FA7F104051B
:1008500060D0D8F8000000F00C00042809D0D8F8C7
:10086000000000F00C0008280DD1386810F4800F4B
:1008700009D0286810F4003F4CD06068002849D1A6
:100880000120BDE8F88F6068B0F5803F14D0B0F566
:10089000A02F16D0286820F480302860286820F423
:1008A00080202860606810B3FFF7BAFD064628680C
:1008B00010F4003F0ED02DE0286840F4803028600E
:1008C000F0E7286840F480202860286840F48030F1
:1008D0002860E7E7FFF7A4FD801B642802D9032006
:1008E000BDE8F88F286810F4003FF3D012E0FFF75E
:1008F00097FD0646286810F4003F0BD0FFF790FDE7
:10090000801B642802D90320BDE8F88F286810F402
:10091000003FF3D12078DFF8489310F0020F4FF03A
:10092000000663D0D8F800004FF0F80B10F00C0F61
:1009300016D0D8F8000000F00C00082803D1386861
:1009400010F4800F0CD0E068C8B30120C9F8000093
:10095000FFF766FD8246286810F0020F16D022E0ED
:10096000286810F0020F05D0E068012802D00120AD
:10097000BDE8F88F28689BFAABF22169B2FA82F2DF
:1009800020F0F8009140084328602FE0FFF748FD71
:10099000A0EB0A00022802D90320BDE8F88F2868DE
:1009A00010F0020FF2D028689BFAABF22169B2FA7C
:1009B00082F220F0F80091400843286016E0FFE73B
:1009C000C9F80060FFF72CFD8246286810F0020F7E
:1009D0000CD0FFF725FDA0EB0A00022802D9032066
:1009E000BDE8F88F286810F0020FF2D1207810F0DF
:1009F000080F34D09B48DFF870B26169C1B10121A2
:100A00000160FFF70DFD8246DBF8000010F0020FD9
:100A100025D1FFF705FDA0EB0A00022802D903202B
:100A2000BDE8F88FDBF8000010F0020FF1D016E0FF
:100A30000660FFF7F5FC8246DBF8000010F0020FBD
:100A40000DD0FFF7EDFCA0EB0A00022802D903202D
:100A5000BDE8F88FDBF8000010F0020FF1D120782C
:100A600010F0040F43D08148016841F080510160CB
:100A7000006800F080500090DFF8F4B1DBF800006F
:100A800040F48070CBF80000FFF7CAFC8246DBF828
:100A9000000010F4807F0DD1FFF7C2FCA0EB0A002C
:100AA000022802D90320BDE8F88FDBF8000010F41B
:100AB000807FF1D0A068DFF8BCB1012818D00528EC
:100AC0001DD0DBF8000020F00100CBF80000DBF8BF
:100AD000000020F00400CBF80000A06868B3FFF726
:100AE0009FFC8246DBF8000010F0020F14D03CE0BF
:100AF000DBF8000040F00100CBF80000EDE7DBF888
:100B0000000040F00400CBF80000DBF8000040F0EB
:100B10000100CBF80000E0E7FFF782FCA0EB0A0140
:100B200041F28830814202D90320BDE8F88FDBF81A
:100B3000000010F0020FEFD017E0FFF771FC8246C3
:100B4000DBF8000010F0020F0FD0FFF769FCA0EBFC
:100B50000A0141F28830814202D90320BDE8F88FB2
:100B6000DBF8000010F0020FEFD1A069F0B3D8F865
:100B7000001001F00C0108296CD0022810D0C9F82F
:100B80006060FFF74DFC0446286810F0007F5ED0DF
:100B9000FFF746FC001B022855D90320BDE8F88F5B
:100BA000C9F86060FFF73CFC0646286810F0007F3B
:100BB0000BD0FFF735FC801B022802D90320BDE8CB
:100BC000F88F286810F0007FF3D1216AE0694FF0B8
:100BD000FF3340EA010247F6C07191FAA1F1606A61
:100BE000B1FA81F100FA01F1A06A00E02FE003EB15
:100BF00050004FF4403393FAA3F3B3FA83F39840D1
:100C0000084310434FF0706292FAA2F2E16AB2FA1E
:100C100082F29140084338600120C9F86000FFF774
:100C2000FFFB0446286810F0007F10D1FFF7F8FBA7
:100C3000001B022802D90320BDE8F88F286810F0B5
:100C4000007FF3D003E0286810F0007FA0D10020DF
:100C5000BDE8F88F0120BDE8F88F00000838024099
:100C600000004742800E474274380240403802403C
:100C700000700040703802404FF0E021042804D09A
:100C8000086920F0040008617047086940F004001A
:100C90000861704770470000401EB0F1807F01D3AB
:100CA000012070474FF0E0214861044AF0201070A5
:100CB00000208861072008610020704723ED00E0D4
:100CC00010B5FFF7E7FF10BDFEE70000F0B587B0F5
:100CD0002348016841F080010160016801F0800152
:100CE0000191016841F010010160016801F01001FB
:100CF0000191016841F010010160006800F01000EE
:100D00000190184F00224FF400713846FFF780FB26
:100D1000154E002220213046FFF77AFB00224021A9
:100D20003046FFF775FB70150290012403940225ED
:100D3000059502A93846FFF767FA2021029103942E
:100D4000059502A93046FFF75FFA40200290039410
:100D5000059502A93046FFF757FA07B0F0BD00002D
:100D600030380240001C024000100240FEE770478D
:100D700070477047704710B5FFF758FBBDE810404B
:100D8000FFF79EBF30B593B000252248016841F0BF
:100D900080510160006800F0805000901E4801689A
:100DA00041F480410160006800F48040009001201F
:100DB00006900004079002240C9480010D900820F6
:100DC0000E904FF4A8700F9010940720119006A871
:100DD000FFF732FD0F200190029403954FF4A050CD
:100DE0000490E0020590052101A8FFF7DBFBFFF767
:100DF000D1FCFFF7D5FC0949B0FBF1F0FFF74CFF40
:100E00000420FFF739FF00221146501EFFF784FB34
:100E100013B030BD403802400070004040420F0027
:100E20000F48016841F4700101600E48016841F00B
:100E3000010101600C4A00211160026822F41022B5
:100E400022F080720260031D084A1A60026822F4D0
:100E50008022026006480160064958060860704713
:100E600088ED00E0003802400838024010300024CD
:100E70000C38024008ED00E0FEE702E008C8121F4F
:100E800008C1002AFAD170477047002001E001C173
:100E9000121F002AFBD17047FFF7D0FAFFF772FF4D
:100EA000FFF714FF0E4D0D4E0E4C6F004FF4007106
:100EB0003046FFF7A9FA2846FFF796F92021204689
:100EC000FFF7A2FA3846FFF78FF940212046FFF7D7
:100ED0009BFA2846FFF788F9E8E70000001C02406B
:100EE00020A10700001002400000000000000000E8
:100EF0000102030406070809180F0008000000207B
:100F0000080000007A0E0008200F000808000020EA
:100F1000001000008A0E0008000000000024F40009
:040000050800018965
:00000001FF
