:020000040800F2
:1000000008040020D91600086516000867160008C5
:10001000691600086B1600086D1600080000000045
:100020000000000000000000000000006F16000843
:10003000711600080000000073160008751600080D
:10004000F5160008F9160008FD160008011700084B
:100050000517000881160008091700080D17000889
:100060001117000815170008191700081D170008B8
:100070002117000825170008291700082D17000868
:100080003117000835170008391700083D17000818
:100090004117000845170008491700084D170008C8
:1000A0005117000855170008591700085D17000878
:1000B0006117000865170008691700086D17000828
:1000C0007117000875170008791700087D170008D8
:1000D0008117000885170008891700088D17000888
:1000E0009117000895170008991700089D17000838
:1000F000A1170008A5170008A9170008AD170008E8
:10010000B1170008B5170008B9170008BD17000897
:10011000C1170008C5170008C9170008CD17000847
:10012000D1170008D5170008D9170008DD170008F7
:10013000E1170008E5170008E9170008ED170008A7
:10014000F1170008F5170008F9170008FD17000857
:100150000118000805180008091800080D18000803
:100160001118000815180008191800081D180008B3
:1001700021180008251800082918000800000000B0
:100180002D1800083118000838B504000025206833
:10019000102804D3F321DFF8740800F05BFC20780A
:1001A000C00740F18080606800280CD06068B0F51E
:1001B000803F08D06068B0F5A02F04D0F821DFF8A8
:1001C0004C0800F047FCDFF84808006810F00C000D
:1001D00004280BD0DFF83808006810F00C0008285D
:1001E0000ED1DFF830080068400209D5DFF8280892
:1001F0000068800357D56068002854D101204FE281
:100200006068B0F5803F08D1DFF80C08006850F452
:100210008030DFF80418086024E06068B0F5A02F93
:1002200010D1DFF8F407006850F48020DFF8E817F9
:100230000860DFF8E407006850F48030DFF8D81772
:1002400008600FE0DFF8D007006830F48030DFF896
:10025000C8170860DFF8C007006830F48020DFF8B6
:10026000B8170860606800280ED000F02AFC05006E
:10027000DFF8A4070068800315D400F022FC401BBF
:100280006528F5D303200BE200F01BFC0500DFF826
:1002900088070068800306D500F013FC401B652822
:1002A000F5D30320FCE12078800740D5E0680028E2
:1002B00008D0E068012805D04FF49571DFF84C07AD
:1002C00000F0C8FB2069202805D340F22B11DFF88D
:1002D0003C0700F0BFFBDFF83807006810F00C0F98
:1002E0000BD0DFF82C07006810F00C00082843D171
:1002F000DFF82007006840023ED4DFF81C070068E2
:10030000800704D5E068012801D00120C8E1DFF8AA
:10031000080700685FF0F851B1FA81F130F0F80099
:10032000226912FA01F10843DFF8EC160860207820
:1003300000076ED56069002808D06069012805D0E3
:1003400040F26B11DFF8C40600F084FB60690028FE
:100350004CD00120DFF8C416086000F0B2FB0500A5
:10036000DFF8BC060068800753D400F0AAFB401BEE
:100370000328F5D3032093E1E068002823D001206F
:10038000DFF8A016086000F09CFB0500DFF8880687
:100390000068800706D400F094FB401B0328F5D3C7
:1003A00003207DE1DFF8700600685FF0F851B1FAD4
:1003B00081F130F0F800226912FA01F10843DFF808
:1003C00058160860B3E70020DFF85816086000F000
:1003D00078FB0500DFF8400600688007A7D500F02D
:1003E00070FB401B0328F5D3032059E10020DFF800
:1003F0002C16086000F065FB0500DFF82406006895
:10040000800706D500F05DFB401B0328F5D30320D1
:1004100046E12078400740F18C80A06800280BD08E
:10042000A068012808D0A068052805D040F29511E1
:10043000DFF8D80500F00EFB00200090DFF8E8059B
:10044000006850F08050DFF8E0150860DFF8D8054C
:10045000006810F0805000900098DFF8D005006828
:1004600050F48070DFF8C415086000F02AFB050026
:10047000DFF8B8050068C00506D400F022FB401B79
:100480000328F5D303200BE1A068012808D1DFF889
:10049000A005006850F00100DFF89415086023E023
:1004A000A068052810D1DFF88805006850F0040026
:1004B000DFF87C150860DFF87805006850F001006F
:1004C000DFF86C1508600FE0DFF86405006840088D
:1004D0004000DFF85C150860DFF85405006830F074
:1004E0000400DFF84C150860A068002810D000F068
:1004F000E8FA0500DFF838050068800719D400F035
:10050000E0FA401B41F289318842F3D30320C7E06F
:1005100000F0D7FA0500DFF818050068800708D555
:1005200000F0CFFA401B41F289318842F3D3032017
:10053000B6E0A06900280BD0A069012808D0A06906
:10054000022805D04FF4E571DFF8C00400F082FA0C
:10055000A069002800F0A380DFF8B404006810F060
:100560000C00082800F09980A069022840F08280E1
:10057000E069002809D0E069B0F5800F05D040F2AD
:10058000D311DFF8880400F065FA206A402805D30B
:100590004FF4EA71DFF8740400F05CFA606A3238F4
:1005A000B0F5BF7F05D940F2D511DFF8600400F047
:1005B00051FAA06A02280ED0A06A04280BD0A06AC3
:1005C000062808D0A06A082805D04FF4EB71DFF8A0
:1005D0003C0400F03FFAE06A801E0E2805D340F28A
:1005E000D711DFF8280400F035FA0020DFF84414B2
:1005F000086000F066FA0500DFF81C04006880015E
:1006000006D500F05EFA401B0328F5D3032047E02F
:10061000DFF82404B0FA80F14FF44040B0FA80F2E1
:10062000F020B0FA80F0E369256A2B43656A15FA79
:1006300001F11943A36A5B085B1E13FA02F211432E
:10064000E26A12FA00F00843DFF8C81308600120DC
:10065000DFF8E013086000F034FA0500DFF8B803B3
:10066000006880011BD400F02CFA401B0328F5D34E
:10067000032015E00020DFF8BC13086000F021FA29
:100680000500DFF894030068800108D500F019FA2E
:10069000401B0328F5D3032002E0012000E00020E6
:1006A00032BD70B504000D0000262068002802D07D
:1006B0002068102805D340F23521DFF8500300F000
:1006C000C9F9002D13D0012D11D0022D0FD0032D0B
:1006D0000DD0042D0BD0052D09D0062D07D0072DE8
:1006E00005D040F23621DFF8240300F0B3F9DFF83B
:1006F0004C03006810F00F00A8420BD2DFF83C0357
:100700000570DFF83803006810F00F00A84201D030
:1007100001202DE1207880072AD5A06800281DD06F
:10072000A06880281AD0A068902817D0A068A028B8
:1007300014D0A068B02811D0A068C0280ED0A0683E
:10074000D0280BD0A068E02808D0A068F02805D0F9
:1007500040F24D21DFF8B40200F07CF9DFF8B0027E
:10076000006830F0F000A1680843DFF8A4120860C8
:100770002078C00740F18580606800280ED060684E
:1007800001280BD06068022808D06068032805D0D3
:100790004FF41571DFF8740200F05CF9606801280D
:1007A00006D1DFF874020068800315D40120DFE071
:1007B0006068022802D06068032806D1DFF858027A
:1007C0000068800108D40120D2E0DFF84C02006804
:1007D000800701D40120CBE0DFF8340200688008F4
:1007E000800061680843DFF82812086000F069F9AA
:1007F0000600606801280FD1DFF81402006810F0CD
:100800000C0004283DD000F05CF9801B41F28931D6
:100810008842F1D30320ABE0606802280FD1DFF8F3
:10082000F001006810F00C0008282AD000F049F907
:10083000801B41F289318842F1D3032098E060683F
:1008400003280FD1DFF8C801006810F00C000C2855
:1008500017D000F036F9801B41F289318842F1D37C
:10086000032085E0DFF8A801006810F00C0F08D025
:1008700000F027F9801B41F289318842F2D303202E
:1008800076E0DFF8B801006810F00F0085420BD267
:10089000DFF8A8010570DFF8A401006810F00F0070
:1008A000A84201D0012063E02078400722D5E0680B
:1008B000002815D0E068B0F5805F11D0E068B0F591
:1008C000A05F0DD0E068B0F5C05F09D0E068B0F57A
:1008D000E05F05D040F2B221DFF8300100F0BAF855
:1008E000DFF82C01006830F4E050E1680843DFF8DD
:1008F000201108602078000723D52069002815D032
:100900002069B0F5805F11D02069B0F5A05F0DD0EF
:100910002069B0F5C05F09D02069B0F5E05F05D06F
:1009200040F2B921DFF8E40000F094F8DFF8E000CD
:10093000006830F46040216950EAC100DFF8D0104F
:10094000086000F01AF8DFF8C81009685FF07062FC
:10095000B2FA82F2DFF8E83011F0F001D140C95C60
:10096000C840DFF8E0100860002000F092F8002096
:1009700070BD01203449086070470020002000212C
:1009800000202348006810F00C00002804D0042840
:1009900004D0082804D034E02C4833E02C4831E05F
:1009A0001C48006810F03F001A49096849020DD53B
:1009B00018490968264AB2FBF0F047F6C0721140A8
:1009C0001D4AB2FA82F2D14048430CE0114909684D
:1009D0001E4AB2FBF0F047F6C0721140164AB2FA56
:1009E00082F2D14048430B49096811F440314FF479
:1009F0004042B2FA82F2D140491C4900B0FBF1F00A
:100A000000E0124870470F4800687047D41400088F
:100A1000083802400438024000380240800E474245
:100A200074380240000047424038024000700040E5
:100A300070380240600047420000FE03003C024064
:100A4000C8160008000000204C0047420024F400B3
:100A500000127A00FEE7000080B52348006850F4D9
:100A60000070214908602048006850F480601E49E9
:100A700008601D48006850F480701B49086003201E
:100A800000F0A6F8002000F004F800F01CF90020A7
:100A900002BD10B50400154800684FF47A71B0FB30
:100AA000F1F000F0D8F8002221005FF0FF3000F0F4
:100AB000A4F8002010BD0E480068401C0C490860D6
:100AC00070470B480068704731B5FFF7FAFF040024
:100AD000009D15F1010F00D06D1CFFF7F2FF001B08
:100AE000A842FAD331BD0000003C024000000020C3
:100AF0000400002010F00701DFF89C0100684FF6A9
:100B0000FF021040DFF8942152EA01210843DFF888
:100B1000881108607047DFF880010068C0F3022088
:100B20007047012110F01F029140DFF8742140B29C
:100B3000400942F82010704740B2002809D5090149
:100B4000DFF8602140B210F00F00801800F8041C9C
:100B500004E00901DFF8502140B28154704710B41D
:100B600010F00700D0F10703052B01D3042301E0A7
:100B7000D0F10703041D072C01D2002000E0C01EA5
:100B8000012414FA03F35B1E19408140012313FA78
:100B900000F0401E1040084310BC704780B5411E55
:100BA000B1F1807F01D3012011E0401EDFF8FC107D
:100BB00008600F215FF0FF30FFF7BEFF0020DFF875
:100BC000F01008600720DFF8EC100860002002BD7C
:100BD00010B50400072C0CD0062C0AD0052C08D028
:100BE000042C06D0032C04D0A421DFF8CC00FFF79E
:100BF00031FF2000FFF77EFF10BD70B504000D002F
:100C000016000020102E04D3BC21DFF8AC00FFF743
:100C100021FF102D04D3BD21DFF89C00FFF71AFF40
:100C2000FFF779FF32002900FFF799FF010020004C
:100C300040B2FFF781FF70BD10B5040064B2002C14
:100C400004D5D021DFF87000FFF704FF200040B288
:100C5000FFF767FF10BD80B5FFF7A0FF02BD10B51D
:100C60000400042C06D0002C04D040F2DB11124802
:100C7000FFF7F0FE042C06D10E48006850F0040087
:100C80000C49086005E00B48006830F00400094991
:100C9000086010BD000000000CED00E00000FA0547
:100CA00000E100E018ED00E000E400E014E000E006
:100CB00018E000E010E000E09C13000880B500F0B0
:100CC00001F801BD704780B50320FFF781FF0022C6
:100CD00000217FF00B00FFF790FF002200217FF042
:100CE0000A00FFF78AFF002200217FF00900FFF7CA
:100CF00084FF002200217FF00400FFF77EFF002226
:100D000000217FF00300FFF778FF002200217FF031
:100D10000100FFF772FF002200215FF0FF30FFF7B4
:100D20006CFF002200210520FFF767FF0520FFF779
:100D300083FF01BDF8B504000D000020002700204E
:100D4000DFF83404844224D0DFF83004844220D019
:100D5000DFF82C0484421CD0DFF82804844218D029
:100D6000DFF82404844214D0DFF82004844210D039
:100D7000DFF81C0484420CD0DFF81804844208D049
:100D8000DFF81404844204D0C521DFF81004FFF713
:100D900061FE2868000404D02868000C00040028C4
:100DA00004D0C621DFF8F403FFF754FE686800287A
:100DB00031D0686801282ED0686811282BD0686867
:100DC000022828D06868122825D06868DFF8D01378
:100DD000884220D06868DFF8CC1388421BD068684E
:100DE000DFF8C413884216D06868DFF8C013884261
:100DF00011D06868DFF8B81388420CD06868DFF853
:100E0000B413884207D06868032804D0C721DFF8EC
:100E10008C03FFF71FFEA86800280AD0A8680128E5
:100E200007D0A868022804D0C821DFF87003FFF7B4
:100E300011FE002639E00821C9B216F00302D2B231
:100E4000920091400843DFF87013B20841F8220085
:100E5000DFF868030068B8436968C90300D5384300
:100E6000DFF858130860DFF858030068B843696872
:100E7000890300D53843DFF848130860DFF84403DE
:100E80000068B8436968C90200D53843DFF83413F5
:100E90000860DFF834030068B8436968890200D548
:100EA0003843DFF824130860761C102E80F031815F
:100EB0000120B040296810EA01078742F4D1686830
:100EC000022803D06868122840F08780286900282B
:100ED0006DD0286909286AD02869002867D0286958
:100EE000002864D02869002861D0286900285ED0D5
:100EF000286901285BD02869012858D02869022870
:100F000055D02869022852D0286902284FD0286974
:100F100003284CD02869042849D02869042846D0E1
:100F20002869042843D02869052840D02869052865
:100F30003DD0286909283AD02869062837D0286981
:100F4000092834D02869072831D0286907282ED0ED
:100F5000286907282BD02869082828D0286908285C
:100F600025D02869082822D0286909281FD0286997
:100F700009281CD028690A2819D028690A2816D0FF
:100F800028690B2813D028690C2810D028690C2850
:100F90000DD028690D280AD028690C2807D02869A7
:100FA0000F2804D0D921DFF8F401FFF753FDF00832
:100FB00014EB8000006A0F2116F00702D2B29200F3
:100FC00091408843296916F00702D2B292009140FD
:100FD0000843F10814EB8101086220680321320004
:100FE000D2B2520091408843297911F003013200B6
:100FF000D2B252009140084320606868012808D0AE
:101000006868022805D06868112802D0686812282C
:1010100028D1E86800280DD0E86801280AD0E868DF
:10102000022807D0E868032804D0EC21DFF86C011F
:10103000FFF710FDA06803213200D2B252009140A8
:101040008843E9683200D2B2520091400843A06060
:1010500060680121B14088436968C1F30011B14063
:1010600008436060E06803213200D2B25200914030
:101070008843A9683200D2B2520091400843E06030
:101080006868C0007FF510AF00200090DFF83C01D9
:10109000006850F48040DFF834110860DFF82C015C
:1010A000006810F48040009000984348B10850F860
:1010B00021000F2116F00302D2B292009140884322
:1010C0002D498C4201D10021B6E62C498C4201D138
:1010D0000121B1E62A498C4201D10221ACE629491D
:1010E0008C4201D10321A7E627498C4201D104217A
:1010F000A2E626498C4201D105219DE624498C4275
:1011000001D1062198E623498C427FF494AE072151
:1011100092E6F1BD70B504000D001600ADB2002DD1
:1011200004D140F2B1111D48FFF794FC76B2002EB5
:1011300007D076B2012E04D04FF4D9711748FFF7CB
:1011400089FC76B2002E02D0ADB2A56102E0ADB24C
:101150002804A06170BD38B504000D00ADB2002DAB
:1011600004D14FF4E4710D48FFF774FC6069ADB22F
:101170006840606131BD0000000002400004024090
:1011800000080240000C024000100240001402401F
:1011900000180240001C02400020024038140008E1
:1011A000000011100000211000003110000012108A
:1011B000000022100000321008380140003C0140BD
:1011C000043C0140083C01400C3C014044380240D2
:1011D00080B5FFF741FC00F019F800F07BF84FF400
:1011E00000713648FFF7B7FF3548FFF76DFC202147
:1011F0003448FFF7B0FF3448FFF766FC4021314820
:10120000FFF7A9FF2E48FFF75FFCE8E700B593B0B2
:10121000002000902D48006850F080502B49086055
:101220002A48006810F0805000900098002000903C
:101230002748006850F48040254908602448006829
:1012400010F4804000900098012006905FF48030F8
:10125000079002200C905FF480000D9008200E9003
:101260004FF4A8700F90022010900720119006A84C
:10127000FEF78AFF0F2001900220029000200390C9
:101280004FF4A05004904FF480500590052101A820
:10129000FFF707FAFFF76DFBFFF7B5FB0A49B0FB55
:1012A000F1F0FFF7D8FC0420FFF7D9FC0022002161
:1012B0005FF0FF30FFF7A1FC13B000BD001C02403F
:1012C00020A107000010024040420F0040380240B9
:1012D0000070004000B587B0002000902C480068E6
:1012E00050F080002A4908602948006810F080000A
:1012F00000900098002000902548006850F01000F1
:10130000234908602248006810F0100000900098FF
:10131000002000901E48006850F010001C49086032
:101320001B48006810F010000090009800224FF455
:1013300000711848FFF7EEFE002220211648FFF743
:10134000E9FE002240211448FFF7E4FE4FF400704C
:101350000190012002900220049001A90D48FFF79E
:10136000E9FC20200190012002900220049001A9B4
:101370000948FFF7DFFC4020019001200290022085
:10138000049001A90448FFF7D5FC07B000BD000098
:1013900030380240001C024000100240483A5C42D3
:1013A000616964754E65746469736B446F776E6CC4
:1013B0006F61645CD0DEB8C4545854CEC4BCFE5CCB
:1013C000312E20C8EDBCFEC9E8BCC6D6AEBBF9B113
:1013D000BEC2E3BBFAC0FDB3CC5C595346345F4890
:1013E000414C2D3031392E205359535449434B2D04
:1013F000CFB5CDB3B5CEB4F0B6A8CAB1C6F75C448C
:101400007269766572735C53544D33324634787822
:101410005F48414C5F4472697665725C5372635CED
:1014200073746D3332663478785F68616C5F636FB4
:10143000727465782E630000483A5C426169647595
:101440004E65746469736B446F776E6C6F61645C36
:10145000D0DEB8C4545854CEC4BCFE5C312E20C873
:10146000EDBCFEC9E8BCC6D6AEBBF9B1BEC2E3BB9B
:10147000FAC0FDB3CC5C595346345F48414C2D3023
:1014800031392E205359535449434B2DCFB5CDB349
:10149000B5CEB4F0B6A8CAB1C6F75C447269766539
:1014A00072735C53544D3332463478785F48414C04
:1014B0005F4472697665725C5372635C73746D33FA
:1014C00032663478785F68616C5F6770696F2E632D
:1014D00000000000483A5C42616964754E657464BE
:1014E00069736B446F776E6C6F61645CD0DEB8C4F7
:1014F000545854CEC4BCFE5C312E20C8EDBCFEC98D
:10150000E8BCC6D6AEBBF9B1BEC2E3BBFAC0FDB300
:10151000CC5C595346345F48414C2D3031392E2034
:101520005359535449434B2DCFB5CDB3B5CEB4F039
:10153000B6A8CAB1C6F75C447269766572735C532B
:10154000544D3332463478785F48414C5F44726979
:101550007665725C5372635C73746D333266347893
:10156000785F68616C5F7263632E63001248006885
:1015700050F47000104908601048006850F00100F5
:101580000E49086000200E4908600C4800680D49AB
:1015900008400A4908600C480C4908600748006880
:1015A00030F48020054908600020094908605FF098
:1015B000006008490860704788ED00E0003802408C
:1015C00008380240FFFFF6FE1030002404380240C5
:1015D0000C38024008ED00E010B450F8041B79B15B
:1015E0000268436812180830DC0744BFA9F10104FF
:1015F000E31852F8044B43F8044B091FF9D1ECE708
:1016000010BC704710B5074979441831064C7C442A
:10161000163404E00A68081D511888470146A142A3
:10162000F8D110BD2C0000003C0000004EF688519F
:10163000CEF20001086840F470000860BFF34F8FDD
:10164000BFF36F8F4FF00070E1EE100A704700009B
:1016500089FFFFFF08000000DC01000000000020FF
:10166000000000007047FEE7FEE7FEE7FEE7704778
:101670007047704780B5FFF71EFAFFF71FFB01BDEB
:101680007047000000F00BF8002801D0FFF7BAFF08
:101690000020C046C046FFF79BFD00F002F8012085
:1016A000704700F001B800000746384600F002F825
:1016B000FBE7000080B5C046C046024A1100182072
:1016C000ABBEFBE7260002000000000000000000A7
:1016D0000102030406070809014880470148004742
:1016E0006D150008E9160008C046C046FFF79EFFCA
:1016F000FFF7C8FFFFF7FEBFFFF7FEBFFFF7FEBF14
:10170000FFF7FEBFFFF7FEBFFFF7FEBFFFF7FEBF0D
:10171000FFF7FEBFFFF7FEBFFFF7FEBFFFF7FEBFFD
:10172000FFF7FEBFFFF7FEBFFFF7FEBFFFF7FEBFED
:10173000FFF7FEBFFFF7FEBFFFF7FEBFFFF7FEBFDD
:10174000FFF7FEBFFFF7FEBFFFF7FEBFFFF7FEBFCD
:10175000FFF7FEBFFFF7FEBFFFF7FEBFFFF7FEBFBD
:10176000FFF7FEBFFFF7FEBFFFF7FEBFFFF7FEBFAD
:10177000FFF7FEBFFFF7FEBFFFF7FEBFFFF7FEBF9D
:10178000FFF7FEBFFFF7FEBFFFF7FEBFFFF7FEBF8D
:10179000FFF7FEBFFFF7FEBFFFF7FEBFFFF7FEBF7D
:1017A000FFF7FEBFFFF7FEBFFFF7FEBFFFF7FEBF6D
:1017B000FFF7FEBFFFF7FEBFFFF7FEBFFFF7FEBF5D
:1017C000FFF7FEBFFFF7FEBFFFF7FEBFFFF7FEBF4D
:1017D000FFF7FEBFFFF7FEBFFFF7FEBFFFF7FEBF3D
:1017E000FFF7FEBFFFF7FEBFFFF7FEBFFFF7FEBF2D
:1017F000FFF7FEBFFFF7FEBFFFF7FEBFFFF7FEBF1D
:10180000FFF7FEBFFFF7FEBFFFF7FEBFFFF7FEBF0C
:10181000FFF7FEBFFFF7FEBFFFF7FEBFFFF7FEBFFC
:10182000FFF7FEBFFFF7FEBFFFF7FEBFFFF7FEBFEC
:0C183000FFF7FEBF0024F40000000000E1
:04000005080016E9F0
:00000001FF
