:020000040800F2
:10000000A01000209D010008EB1A0008011A00084A
:10001000E91A000825070008B122000800000000C6
:10002000000000000000000000000000F11A0008BD
:100030002707000800000000ED1A0008F31A000866
:10004000B7010008B7010008B7010008B7010008B0
:10005000B7010008EF1A0008B7010008B70100084F
:10006000B7010008B7010008B7010008B701000890
:10007000B7010008B7010008B7010008B701000880
:10008000B7010008B7010008B7010008B701000870
:10009000B7010008B7010008B7010008B701000860
:1000A000B7010008B7010008B7010008B701000850
:1000B000F51B0008B7010008B7010008B7010008E8
:1000C000B7010008B7010008B7010008B701000830
:1000D000B7010008B7010008B7010008B701000820
:1000E000B7010008B7010008B7010008B701000810
:1000F000B7010008B7010008B7010008B701000800
:10010000B7010008B7010008B7010008B7010008EF
:10011000B7010008B7010008B7010008B7010008DF
:10012000B7010008B7010008B7010008B7010008CF
:10013000B7010008B7010008B7010008B7010008BF
:10014000B7010008B7010008B7010008B7010008AF
:10015000B7010008B7010008B7010008B70100089F
:10016000B7010008B7010008B7010008B70100088F
:10017000B7010008B7010008B7010008000000003F
:10018000B7010008B7010008DFF80CD000F02AFA28
:1001900000480047A52B0008A01000200648804713
:1001A00006480047FEE7FEE7FEE7FEE7FEE7FEE75C
:1001B000FEE7FEE7FEE7FEE79D1B00088901000859
:1001C00000F0004230F000400AD0C10D01F560712E
:1001D000C0F3160042EA0151C208400711437047BC
:1001E00000200146704730B50B4601460020202212
:1001F000012409E021FA02F59D4205D303FA02F534
:10020000491B04FA02F52844151EA2F10102F1DC93
:1002100030BD2DE9F05F0546002092469B4688469A
:100220000646814640241BE0284641464746224672
:1002300000F0F9F953465A46C01A914110D31146BD
:100240001846224600F0E0F92D1A67EB01084F46E8
:1002500022460120002100F0D7F917EB00094E419A
:10026000201EA4F10104DFDC484631462A464346FD
:10027000BDE8F09F2DE9FE4F804681EA0300C00FE4
:100280000C46009021F0004123F00045B8EB02003D
:10029000A94105D24046214690461C460B460246DF
:1002A00023F00040104347D0270DC7F30A00C3F3E3
:1002B0000A510290401A019040286BDAC3F31300F0
:1002C00040F4801B0098924620B10023D2EB030A31
:1002D00063EB0B0B01985946C0F14002504600F009
:1002E00093F906460D4650465946019A00F0ABF97F
:1002F00010EB08006141002487EA115284EAE77399
:100300001A4340D0009A62B3019A012A4FEA075279
:1003100015DC001B61EB02014FF0004202EA0752BC
:10032000CDE90042001C41F5801132462B4600F019
:10033000ABF903B0BDE8F08F40462146F9E7001B5A
:1003400061EB0201001C41F5801300185B4120188D
:10035000A2F5001747EB030140EAD570B6196D41CD
:1003600011E06D084FEA360645EAC0754FEA0752BC
:10037000001B61EB0201001C41F5801149084FEAA6
:1003800030000019514132462B4603B0BDE8F04F12
:1003900000F06BB90098012240000023D0EB02026C
:1003A00063EBE073009821464FEAE074B8EB00007D
:1003B00061EB0401E9E783F000435BE781F0004172
:1003C00058E72DE9FE4F81EA030404F0004421F0D0
:1003D000004100944FF0000B23F0004350EA010469
:1003E0005ED052EA03045BD0C3F30A54C1F30A554A
:1003F0002C44A4F2F3340194A0FB0254C1F3130182
:1004000041F48011C3F3130343F4801301FB02444E
:1004100000FB034E840A970A44EA815447EA835753
:10042000A4FB076802958D0A05FB07854FEA932C0C
:1004300004FB0C542705029D4FEA065847EA16377D
:10044000B5EB08056EEB070C870E920E47EA811795
:1004500042EA8312A7FB0201B6EB0B0164EB000436
:100460002B0D43EA0C335E1844EB1C50DA46514620
:10047000E7FB0201C5F313044FEA0B3343EA1453BD
:100480004FEA0432019C43EA0603A4F10C040294EF
:10049000009CCDE900B400F0F7F803B0BDE8F08FA0
:1004A00000200146F9E72DE9F04D81EA030404F04C
:1004B000004B21F0004514464FF0000A23F00041A4
:1004C00050EA050220D054EA01021DD0C5F30A57B4
:1004D0000246C5F31303C1F31300C1F30A5640F4F7
:1004E000801543F48013A7EB0608101BD64608F2CC
:1004F000FD3873EB050002D308F1010801E0921802
:100500005B41B8F1000F03DA00200146BDE8F08D31
:1005100000204FF48011064684460EE0171B73EB53
:10052000050705D3121B63EB050306434CEA010CD8
:1005300049084FEA300092185B4150EA0107EDD1BB
:1005400052EA030012D082EA040083EA050108435C
:1005500005D0101BAB4106D20122002306E0002289
:100560004FF0004302E06FF0010253101AEB060057
:100570004CEB085110EB0A0041EB0B01BDE8F04DCC
:1005800000F073B8C1F30A52C1F3130140F2FF3314
:1005900041F480119A4202DA00200146704740F28D
:1005A00033439A42A2F2334202DC524200F03BB89B
:1005B00000F02AB830B5041E71F1000404DB4FF0DE
:1005C0000044404264EB0101141E73F1000405DB9A
:1005D0001C464FF00043524263EB0403994208BFAC
:1005E000904230BD064C074D06E0E06840F0010344
:1005F00094E8070098471034AC42F6D3FFF7C8FDE3
:10060000CC2C0008EC2C0008202A04DB203A00FA4D
:1006100002F1002070479140C2F1200320FA03F359
:10062000194390407047202A04DB203A21FA02F057
:100630000021704721FA02F3D040C2F1200291401C
:10064000084319467047202A06DBCB17203A41FAA7
:1006500002F043EAE07306E041FA02F3D040C2F14F
:100660002002914008431946704710B5141E73F1DB
:10067000000408DA401C41F1000192185B411A4362
:1006800001D120F0010010BD2DE9F04D92469B46AE
:1006900011B1B1FA81F202E0B0FA80F22032904654
:1006A000FFF7B2FF04460F4640EA0A0041EA0B0199
:1006B00053465A46084313D0114653EA010019D055
:1006C000C8F140025046FFF7AEFF05460E465046C1
:1006D00059464246FFF798FF084305D0012004E041
:1006E00020463946BDE8F08D0020054346EAE07615
:1006F0002C4337430A986305E40AA0EB0800002264
:10070000FD0A44EA47540A3002D500200146E9E7D1
:10071000010510196941DDE9084500196941BDE885
:10072000F04DA2E7FEE7704770B590B000241D4879
:10073000016841F001010160006800F001000190D2
:1007400019484FF080410160012545608460611EB9
:10075000C160046100F0DCFD28030C900CA9124874
:1007600000F048FE04200790502008900B94099454
:100770000A9407A90C4801F053F802260296039543
:1007800004940594002202A9074800F0E1FE0294B7
:10079000039604940594042202A9034800F0D8FEAD
:1007A00010B070BD403802402400002031B500F088
:1007B00019F90546009CB4F1FF3F00D0641C00F01D
:1007C00011F9401BA042FAD338BD00002DE9F84FC3
:1007D0000022DFF8E481DFF8E491DFF8E4A14FF0D4
:1007E000030E0F27012303FA02F50B682B40AB42DF
:1007F0007ED1D1F804C0BCF1020F02D0BCF1120FBF
:1008000012D14FEAD20C00EB8C0CDCF820605407BC
:10081000E40E07FA04FB26EA0B06D1F810B00BFA37
:1008200004F43443CCF8204006684FEA420C0EFA38
:100830000CF4A64391F804B00BF0030B0BFA0CFB7D
:100840004BEA060606604E68012E05D0022E03D044
:10085000112E01D0122E11D18668A643D1F80CB00A
:100860000BFA0CFB4BEA06068660466826EA05058D
:100870000E79C6F30016964035434560C56825EAF3
:1008800004048D6805FA0CFC4CEA040CC0F80CC09A
:10089000D1F804C01CF0805F6FD0D8F800C04CF4D1
:1008A000804CC8F800C0D8F800C00CF4804CCDF8DB
:1008B00000C022F0030C0CF1804404F59834D4F805
:1008C00008C895072D0F07FA05F62CEA0606A0F1D1
:1008D000804CBCF5003C56D0BCF5806C56D0BCF5C5
:1008E000806C56D0BCF5806C56D0BCF5806C00E0B6
:1008F00043E054D0BCF5806C54D0BCF5806C54D02F
:10090000BCF5806C54D04FF0080C0CFA05FC4CEA96
:10091000060CC4F808C8D9F800C02CEA030C4C68CF
:1009200014F4803F01D04CEA030CC9F800C0254CF8
:10093000D4F800C02CEA030C4D6815F4003F01D038
:100940004CEA030CC4F800C0DAF800C02CEA030C2F
:100950004C6814F4801F01D04CEA030CCAF800C0A4
:10096000194CD4F800C02CEA030C4D6815F4001F94
:1009700001D04CEA030CC4F800C0521C102AFFF44A
:1009800031AFBDE8F88F4FF0000CBEE74FF0010C1F
:10099000BBE74FF0020CB8E74FF0030CB5E74FF0A0
:1009A000040CB2E74FF0050CAFE74FF0060CACE7D4
:1009B0004FF0070CA9E7000044380240003C01401A
:1009C000083C0140043C01400C3C0140426951405C
:1009D00041617047002A01D081617047090481613B
:1009E00070470000014800687047000004000020C4
:1009F00002480168491C01607047000004000020A3
:100A000010B50B48016841F400710160016841F4C0
:100A100080610160016841F480710160032000F091
:100A200091F8002000F006F800F018F8002010BD42
:100A3000003C024010B5044607484FF47A72006843
:100A4000B0FBF2F000F04AFC00222146501E00F0FC
:100A500045F8002010BD00000800002010B505205A
:100A600000F070F8002211466FF00B0000F036F82D
:100A7000002211466FF00A0000F030F80022114603
:100A80006FF0090000F02AF800221146501F00F014
:100A900025F800221146101F00F020F80022114610
:100AA000901E00F01BF800221146501E00F016F8B0
:100AB00000221146052000F011F8BDE81040052085
:100AC000AFF3008000F01F01012202FA01F140099A
:100AD000800000F1E020C0F80011704710B4184BFE
:100AE0001B68C3F30223C3F1070CBCF1040F01D947
:100AF0004FF0040C1C1D072C01D2002300E0DB1E6C
:100B0000012404FA0CFCACF1010C0CEA010199403F
:100B100004FA03F35B1E1A401143002808DA00F0C0
:100B20000F0000F1E020090180F8141D10BC70478F
:100B300000F1E020090180F8001410BC70470000AB
:100B40000CED00E000F00700064A11684FF6FF03C5
:100B5000194041EA002040F0FD7040F080601060D4
:100B6000704700000CED00E02DE9F05F04460E46F2
:100B7000DFF8D091D9F80000F7B200F00F00B042D2
:100B80000AD289F80070D9F8000000F00F00B042D6
:100B900002D00120BDE8F09F2078DFF8AC8110F092
:100BA000020F07D0D8F80000A16820F0F000084339
:100BB000C8F80000207810F0010F51D06068634938
:100BC000012808D002280DD003280BD0096811F0A5
:100BD000020F2ED00AE0096811F4003F06D101206F
:100BE000BDE8F09F096811F0007F1FD0D8F8001011
:100BF00021F003010843C8F80000FFF7F3FE0546A3
:100C0000606841F2883A012816D0022829D00328CA
:100C10003CD0D8F8000010F00C0F51D0FFF7E2FEE6
:100C2000401B504547D90320BDE8F09F0120BDE897
:100C3000F09F0120BDE8F09FD8F8000000F00C0004
:100C400004283DD0FFF7CEFE401B504502D90320BB
:100C5000BDE8F09FD8F8000000F00C000428F1D1A6
:100C60002EE0D8F8000000F00C00082828D0FFF78C
:100C7000B9FE401B504502D90320BDE8F09FD8F8CB
:100C8000000000F00C000828F1D119E0D8F80000AD
:100C90004FF00C0B3BEA000012D0FFF7A3FE401B05
:100CA000504502D90320BDE8F09FD8F800003BEA88
:100CB0000000F2D104E0D8F8000010F00C0FADD124
:100CC000D9F8000000F00F00B0420AD989F800708E
:100CD000D9F8000000F00F00B04202D00120BDE8BA
:100CE000F09F207810F0040F07D0D8F80000E168DA
:100CF00020F4E0500843C8F80000207810F0080FF6
:100D000008D0D8F80000216920F4604040EAC10012
:100D1000C8F8000000F058F8D8F80010F02292FA55
:100D2000A2F201F0F001B2FA82F2D140084A515C1D
:100D3000C840084908600020FFF77CFE0020BDE89D
:100D4000F09F0000003C024008380240003802409A
:100D5000B42C00080800002001490120C864704735
:100D6000000047420148006870470000080000206A
:100D700000B5FFF7F7FF074909684FF4E05292FA10
:100D8000A2F201F4E051B2FA82F2D140024A515C7F
:100D9000C84000BD08380240C42C000800B5FFF769
:100DA000E1FF074909684FF4604292FAA2F201F4A8
:100DB0006041B2FA82F2D140024A515CC84000BDA3
:100DC00008380240C42C000810B41F48006810F016
:100DD0000C011E481BD04FEA600C042916D00829CC
:100DE00015D11B4A116801F03F01136813F4800FFD
:100DF00047F6C0730DD0BCFBF1F01168194093FAAF
:100E0000A3F3B3FA83F3D94048430CE0604610BC27
:100E10007047B0FBF1F01168194093FAA3F3B3FAED
:100E200083F3D940484311684FF4403292FAA2F25A
:100E300001F44031B2FA82F2D140491C4900B0FBC2
:100E4000F1F010BC70470000083802400024F400A4
:100E5000043802402DE9F84F0446DFF81C8420785E
:100E6000A8F1040710F0010FA7F1040560D0D8F82D
:100E7000000000F00C00042809D0D8F8000000F0B1
:100E80000C0008280DD1386810F4800F09D02868AC
:100E900010F4003F4CD06068002849D10120BDE823
:100EA000F88F6068B0F5803F14D0B0F5A02F16D051
:100EB000286820F480302860286820F4802028608A
:100EC000606810B3FFF78EFD0646286810F4003FF7
:100ED0000ED02DE0286840F480302860F0E72868C4
:100EE00040F480202860286840F480302860E7E7DC
:100EF000FFF778FD801B642802D90320BDE8F88F36
:100F0000286810F4003FF3D012E0FFF76BFD0646AF
:100F1000286810F4003F0BD0FFF764FD801B6428A5
:100F200002D90320BDE8F88F286810F4003FF3D100
:100F30002078DFF8489310F0020F4FF0000663D0DE
:100F4000D8F800004FF0F80B10F00C0F16D0D8F8BE
:100F5000000000F00C00082803D1386810F4800F5E
:100F60000CD0E068C8B30120C9F80000FFF73AFDD3
:100F70008246286810F0020F16D022E0286810F090
:100F8000020F05D0E068012802D00120BDE8F88FEB
:100F900028689BFAABF22169B2FA82F220F0F800DD
:100FA0009140084328602FE0FFF71CFDA0EB0A00EA
:100FB000022802D90320BDE8F88F286810F0020F3C
:100FC000F2D028689BFAABF22169B2FA82F220F0E3
:100FD000F80091400843286016E0FFE7C9F8006078
:100FE000FFF700FD8246286810F0020F0CD0FFF7D3
:100FF000F9FCA0EB0A00022802D90320BDE8F88F13
:10100000286810F0020FF2D1207810F0080F34D0C9
:101010009B48DFF870B26169C1B101210160FFF73F
:10102000E1FC8246DBF8000010F0020F25D1FFF74B
:10103000D9FCA0EB0A00022802D90320BDE8F88FF2
:10104000DBF8000010F0020FF1D016E00660FFF7A9
:10105000C9FC8246DBF8000010F0020F0DD0FFF74C
:10106000C1FCA0EB0A00022802D90320BDE8F88FDA
:10107000DBF8000010F0020FF1D1207810F0040F1F
:1010800043D08148016841F080510160006800F060
:1010900080500090DFF8F4B1DBF8000040F480707D
:1010A000CBF80000FFF79EFC8246DBF8000010F44E
:1010B000807F0DD1FFF796FCA0EB0A00022802D931
:1010C0000320BDE8F88FDBF8000010F4807FF1D03A
:1010D000A068DFF8BCB1012818D005281DD0DBF8C6
:1010E000000020F00100CBF80000DBF8000020F049
:1010F0000400CBF80000A06868B3FFF773FC8246D9
:10110000DBF8000010F0020F14D03CE0DBF8000028
:1011100040F00100CBF80000EDE7DBF8000040F004
:101120000400CBF80000DBF8000040F00100CBF831
:101130000000E0E7FFF756FCA0EB0A0141F288301F
:10114000814202D90320BDE8F88FDBF8000010F0DF
:10115000020FEFD017E0FFF745FC8246DBF80000F6
:1011600010F0020F0FD0FFF73DFCA0EB0A0141F297
:101170008830814202D90320BDE8F88FDBF80000F7
:1011800010F0020FEFD1A069F0B3D8F8001001F011
:101190000C0108296CD0022810D0C9F86060FFF754
:1011A00021FC0446286810F0007F5ED0FFF71AFC8F
:1011B000001B022855D90320BDE8F88FC9F86060EC
:1011C000FFF710FC0646286810F0007F0BD0FFF7F1
:1011D00009FC801B022802D90320BDE8F88F28688B
:1011E00010F0007FF3D1216AE0694FF0FF3340EA4D
:1011F000010247F6C07191FAA1F1606AB1FA81F17A
:1012000000FA01F1A06A00E02FE003EB50004FF478
:10121000403393FAA3F3B3FA83F39840084310439F
:101220004FF0706292FAA2F2E16AB2FA82F2914051
:10123000084338600120C9F86000FFF7D3FB04467B
:10124000286810F0007F10D1FFF7CCFB001B0228AC
:1012500002D90320BDE8F88F286810F0007FF3D092
:1012600003E0286810F0007FA0D10020BDE8F88FCF
:101270000120BDE8F88F0000083802400000474216
:10128000800E4742743802404038024000700040EF
:10129000703802404FF0E021042804D0086920F0A3
:1012A000040008617047086940F004000861704755
:1012B0000748006807490988B0FBF1F201FB1200FA
:1012C000002803D120210448FFF780BB70470000AD
:1012D000040000200000002000200240401EB0F169
:1012E000807F01D3012070474FF0E0214861044A1C
:1012F000F0201070002088610720086100207047EE
:1013000023ED00E010B5FFF7D3FF10BD7047704725
:1013100010B50446002C03D094F8390010B107E052
:10132000012010BD002084F83800204600F00CF8A1
:10133000022084F83900211D206800F061FC0120A2
:1013400084F83900002010BD70B586B01E4988426F
:1013500038D100261D48016841F001010160006894
:1013600000F0010000901A48016841F0010101609D
:10137000016801F001010091016841F48071016090
:10138000006800F4807000904FF400400190022546
:10139000029501240394059401A90E48FFF716FA5B
:1013A00020200190029404950596039401A90A480F
:1013B000FFF70CFA002211461C20FFF78FFB1C20C0
:1013C000FFF780FB06B070BD2400002040380240CB
:1013D0003038024000000240002002400168CA6824
:1013E00042F00102CA600068016841F00101016039
:1013F0000020704770B5044694F83800012818D0D2
:10140000012584F83850022084F839002068826869
:1014100022F0770222F47F428260086850283AD096
:101420000EDC20285FD006DC002852D0102863D1C3
:1014300054E0022070BD30285AD040285CD13EE0F4
:10144000602832D070280CD0B0F5805F03D0B0F5A2
:10145000005F51D113E02068816821F007018160AD
:101460004AE0CB684A688968206800F030FC206850
:10147000816821F0770141F0770181603CE0CB6821
:101480004A688968206800F022FC2068816841F47D
:101490008041816030E0CA684968206800F06AFCD9
:1014A0005021206800F01EFC26E0CA6849682068C8
:1014B00000F0B0FC6021206800F014FC1CE0CA6859
:1014C0004968206800F056FC4021206800F00AFCC2
:1014D00012E00021206800F005FC0DE010212068DA
:1014E00000F000FC08E02021206800F0FBFB03E096
:1014F0003021206800F0F6FB84F83950002084F891
:10150000380070BD70B504460F4E207E0F4D012887
:1015100009D141023046FFF759FA0021204600F078
:101520005DF9401C2861207E02280BD10102304663
:10153000FFF74CFA0421204600F050F9401CE86007
:101540000120287070BD0000001C02401000002027
:1015500070B504460D4694F83800012821D00126C4
:1015600084F83860022084F83900E2B1042A2BD0D4
:10157000082A3BD0EB686A682968206800F09AFC6A
:101580002068C16921F44061C1612068C169AA680D
:1015900041EA0221C16184F83960002084F83800F2
:1015A00070BD022070BDEB686A682968206800F091
:1015B000F4FB2068816921F00C0181612068816958
:1015C000AA6811438161E6E7EB686A6829682068C8
:1015D00000F032FC2068816921F44061816120685B
:1015E0008169AA6841EA02218161D4E7EB686A68EF
:1015F0002968206800F040FC2068C16921F00C01D6
:10160000C1612068C169AA681143C161C3E710B50F
:1016100004460029226806D0042909D008290CD0E4
:101620000C2913D10EE0D06840F00200D0600DE02C
:10163000D06840F00400D06008E0D06840F00800B6
:10164000D06003E0D06840F01000D0600122206834
:1016500000F030FB2068016841F0010101600020CA
:1016600010BD70B50446206801694FF0000511F007
:10167000020F17D0C16811F0020F13D0E91E0161EB
:10168000012020762068806910F0030F03D02046E7
:10169000FFF738FF05E0204600F09DF8204600F0F7
:1016A0009BF825762068016911F0040F18D0C168F5
:1016B00011F0040F14D06FF00401016102202076B4
:1016C0002068806910F4407F03D02046FFF71AFF9E
:1016D00005E0204600F07FF8204600F07DF82576F2
:1016E0002068016911F0080F18D0C16811F0080FC7
:1016F00014D06FF008010161042020762068C069D1
:1017000010F0030F03D02046FFF7FCFE05E0204653
:1017100000F061F8204600F05FF825762068016946
:1017200011F0100F18D0C16811F0100F14D06FF025
:1017300010010161082020762068C06910F4407F04
:1017400003D02046FFF7DEFE05E0204600F043F818
:10175000204600F041F825762068016911F0010F5C
:1017600009D0C16811F0010F05D06FF001010161CE
:10177000204600F032F82068016911F0800F09D08E
:10178000C16811F0800F05D06FF080010161204623
:10179000FFF7BCFD2068016911F0400F09D0C16856
:1017A00011F0400F05D06FF040010161204600F0BC
:1017B00058F82068016911F0200F0BD0C16811F0B2
:1017C000200F07D06FF0200101612046BDE8704076
:1017D000FFF79DBD70BD704770477047002290F8BD
:1017E0003830012B0AD0012380F8383041B1042968
:1017F00009D008290AD00C290DD10AE0022070472F
:1018000001684A6B07E001688A6B04E00168CA6BF3
:1018100001E001680A6C002180F83810104670471A
:1018200070B5044694F83800012818D0012584F8D2
:101830003850022084F83900204600F05BFA206816
:10184000C16821F04001C1602068C16821F4804175
:10185000C16084F83950002084F8380070BD02203F
:1018600070BD704770B50446002C04D094F8390060
:10187000002510B106E0012070BD84F838502046E4
:1018800000F022F8242084F839002068C16821F48F
:101890000051C160204600F02DFB2068016921F451
:1018A000904101612068416921F02A01416120686D
:1018B000C16841F40051C160E563202084F839001B
:1018C00084F83A00002070BD70B586B00068A0F1C1
:1018D0008041B1F588311FD100241048016841F0E2
:1018E00010010160006800F010000090402001909D
:1018F000022002900490072505950394084E01A943
:101900003046FEF763FF8021019102940394059510
:1019100001A93046FEF75AFF06B070BD44380240B8
:10192000000402402DE9F84304460D4691461E4648
:1019300094F83900202802D00220BDE8F8834DB386
:10194000B9F1000F26D094F83800012825D00120E5
:1019500084F838000027E763212084F83900FFF776
:1019600041F88046A4F82490A4F82690E08CA0B317
:10197000E08C401EE084A068B0F5805F10D0434644
:10198000002280212046009600F056FCF0B1032092
:10199000BDE8F8830120BDE8F8830220BDE8F883A4
:1019A0004346002280212046009600F045FC10B1FD
:1019B0000320BDE8F88328882168C0F30800486048
:1019C000206908B16D1C05E0AD1C03E0216815F825
:1019D000010B4860E08C0028CAD143460022402118
:1019E0002046009600F028FC10B10320BDE8F883E3
:1019F000202084F8390084F838700020BDE8F8838E
:101A0000FEE70000F0B587B02348016841F080018F
:101A10000160016801F080010191016841F010014D
:101A20000160016801F010010191016841F01001AD
:101A30000160006800F010000190184F00224FF480
:101A400000713846FEF7C6FF154E002220213046B1
:101A5000FEF7C0FF002240213046FEF7BBFF7015A5
:101A60000290012403940225059502A93846FEF749
:101A7000ADFE202102910394059502A93046FEF7A0
:101A8000A5FE402002900394059502A93046FEF77A
:101A90009DFE07B0F0BD000030380240001C02403F
:101AA0000010024082B000210C48026842F002029D
:101AB0000260006800F0020001900A48084A0260D3
:101AC0004FF4E13242608160C16001610C224261E9
:101AD0008161C16102B0FFF7C5BE0000303802402D
:101AE0000010014060000020FEE77047704770471B
:101AF000704710B5FEF77CFFBDE81040FFF702BC51
:101B000030B593B000252348016841F08051016051
:101B1000006800F0805000901F48016841F4804147
:101B20000160006800F480400090012006900004ED
:101B3000079002240C9480010D9008200E904FF421
:101B4000A8700F9010940720119006A8FFF782F953
:101B50000F200190029403954FF4A0500490E002EE
:101B60000590052101A8FEF7FFFFFFF7F5F8FFF745
:101B7000F9F84FF47A71B0FBF1F0FFF7AFFB0420F6
:101B8000FFF788FB00221146501EFEF7A7FF13B097
:101B900030BD000040380240007000400F4801682E
:101BA00041F4700101600E48016841F001010160DB
:101BB0000C4A00211160026822F4102222F0807287
:101BC0000260031D084A1A60026822F48022026043
:101BD00006480160064958060860704788ED00E035
:101BE0000038024008380240103000240C3802400F
:101BF00008ED00E00148FFF734BD0000240000209C
:101C0000F0B40268264BDFF89CC0274D274E284CC5
:101C100098420AD0B0F1804F07D0604505D0A84265
:101C200003D0B04201D0A04203D122F070024F682D
:101C30003A4398421ED0B0F1804F1BD0604519D076
:101C4000A84217D0B04215D0A04213D0A0F1804CCA
:101C5000BCF5A03C0ED0BCF5806C0BD0BCF5806C04
:101C600008D01CF5983C05D0BCF5806C02D0BCF5C2
:101C7000806C05D122F44072D1F80CC04CEA02020B
:101C800002608A68C2620A688262984201D0A042F9
:101C900001D10969016301214161F0BC7047000075
:101CA000000001400004004000080040000C00401B
:101CB0000004014001238B40D0F820C02CEA03032C
:101CC0000362036A02FA01F1194301627047D0F816
:101CD00008C02CF47F4C42EA0322114341EA0C0174
:101CE00081607047826822F07002114341F0070161
:101CF000816070470268936823F07003D1F804C0D4
:101D00004CEA030323F00703D1F800C04CEA0303B5
:101D100093604A6812F00F0F21D11211082A1ED2C7
:101D2000DFE802F01D1D1D1D0A1E23040B698A68D1
:101D3000C9680068FFF7CBBF0268136AD2F820C0F9
:101D40002CF0010CC2F820C00268D2F818C02CF0A8
:101D5000F00C09694CEA0111916100680362704757
:101D60000A698968006800F005B80A69896800682E
:101D700000F050B8036AD0F820C02CF0010CC0F875
:101D800020C0D0F818C02CF0F00C4CEA021223F05E
:101D90000A03194382610162704730B4D0F820C051
:101DA0002CF0010CC0F820C0D0F818C0046AA0F1D3
:101DB0008045B5F5803528D0B0F1804F25D015F598
:101DC0007C4522D0B5F580651FD0B5F580651CD067
:101DD000B5F5784519D0B5F5705516D015F594358B
:101DE00013D02CF0030242F0010222F0F0024FF077
:101DF000F00C0CEA03131A4324F00A0301F00A0161
:101E000019438261016230BC70472CF0030C4CEA2C
:101E10000202EAE7036A23F010030362D0F818C055
:101E2000036A2CF4704C4CEA023223F0A00343EA1C
:101E3000011182610162704710B4D0F820C02CF00B
:101E4000100CC0F820C08469D0F820C024F440747D
:101E500044EA022222F470424FF4704404EA03334D
:101E60001A432CF0A0034FF0A00C0CEA0111194307
:101E70008261016210BC704710B4D0F820C02CF40D
:101E8000807CC0F820C0C469D0F820C024F00304CE
:101E9000224322F0F002F02404EA03131A432CF444
:101EA00020634FF4206C0CEA01211943C2610162E6
:101EB00010BC704710B4D0F820C02CF4805CC0F87F
:101EC00020C0C469D0F820C024F4407444EA02223F
:101ED00022F470424FF4704404EA03331A432CF4A2
:101EE00020434FF4204C0CEA01311943C2610162D6
:101EF00010BC70472DE9F04104462068016921F4C7
:101F00004051E268114301612068C16821F4037106
:101F100021F414412369A268D4F81CC01A436369F0
:101F200043EA0C031A431143C1602068416921F45C
:101F30004071A26911434161E069BC4ABC49BD4D91
:101F40003226B0F5004F5ED02068884202D0904221
:101F500040F01281FEF722FF00EBC00101EB001000
:101F600061688900B0FBF1F7FEF718FF00EBC001D4
:101F700001EB001061688900B0FBF1F0A5FB0010D7
:101F800040096FF01801484307EB800006EB001092
:101F9000A5FB0010400900F0F007FEF7FFFE00EB84
:101FA000C00101EB001061688900B0FBF1F0A5FBF6
:101FB0000010400907EB0017FEF7F0FE00EBC00130
:101FC00001EB001061688900B0FBF1F8FEF7E6FE56
:101FD00000EBC00101EB001061688900B0FBF1F07B
:101FE000A5FB001040096FF01801484308EB800082
:101FF00006EB0010A5FB00102168C0F34310384425
:102000008860BDE8F0812068884201D0904259D1B3
:10201000FEF7C4FE00EBC00101EB0010616849004F
:10202000B0FBF1F0A5FB001040090701FEF7B6FE7A
:1020300000EBC00101EB001061684900B0FBF1F852
:10204000FEF7ACFE00EBC00101EB00106168490037
:10205000B0FBF1F0A5FB001040096FF018014843F8
:1020600008EB800006EBC000A5FB0010400900F063
:10207000F80007EB4007FEF791FE00EBC00101EB13
:10208000001061684900B0FBF1F8FEF787FE00EB35
:10209000C00101EB001061684900B0FBF1F0A5FB45
:1020A000001040096FF01801484308EB800006EB70
:1020B000C000A5FB00102168C0F3421038448860BE
:1020C000BDE8F081FEF754FE00EBC00101EB00100B
:1020D00061684900B0FBF1F0A5FB00104009070161
:1020E000FEF746FE00EBC00101EB001061684900FD
:1020F000B0FBF1F8FEF73CFE00EBC00101EB001075
:1021000061684900B0FBF1F0A5FB001040096FF0D9
:102110001801484308EB800006EBC000A5FB001047
:10212000400900F0F80007EB4007FEF721FE00EB46
:10213000C00101EB001061684900B0FBF1F8FEF747
:1021400017FE00EBC00101EB001061684900B0FB15
:10215000F1F0A5FB001040096FF01801484308EBAF
:10216000800006EBC000A5FB00102168C0F3421000
:1021700038448860BDE8F081FEF7FAFD00EBC0014D
:1021800001EB001061688900B0FBF1F7FEF7F0FD8C
:1021900000EBC00101EB001061688900B0FBF1F0B9
:1021A000A5FB001040096FF01801484307EB8000C1
:1021B00006EB0010A5FB0010400900F0F007FEF749
:1021C000D7FD00EBC00101EB001061688900B0FB96
:1021D000F1F0A5FB0010400907EB0017FEF7C8FD62
:1021E00000EBC00101EB001061688900B0FBF1F861
:1021F000FEF7BEFD00EBC00101EB00106168890035
:10220000B0FBF1F0A5FB001040096FF01801484346
:1022100008EB800006EB0010A5FB00102168C0F35E
:10222000431038448860BDE8F0810000001401408C
:10223000001001401F85EB512DE9F0410446069D39
:10224000884617461E462068006838EA000020D0FD
:102250000020B84227D1B5F1FF3F1CD025B1FEF7D1
:10226000C1FB801BA84216D92068C16821F4D07137
:10227000C1602068416921F001014161202084F89A
:10228000390084F83A00002084F838000320BDE8C3
:10229000F0810120DDE72068006838EA000005D001
:1022A0000020B842D7D00020BDE8F0810120F8E737
:1022B000FEE700000FB4054B10B503A9044A0298CD
:1022C00000F0CAF810BC5DF814FB0000892B000870
:1022D0000C00002002E008C8121F08C1002AFAD131
:1022E00070477047002001E001C1121F002AFBD196
:1022F000704700002DE9FF5FDDE90220010DDDF8E8
:1023000038B0024318D044F61050A1F2FF314143D7
:102310000D140F98012820D0A5EB0B00401C5FEA9C
:10232000000A4FF00004474EDFF81C91A0465046CB
:1023300016D5CAF1000728E00F98012443A201280E
:1023400008D0002100980F9BC0E90021C0E902439A
:10235000BDE8FF9F6FEA0B01F4E7CBF10000DEE779
:10236000074612E0F80707D0224633464046494662
:10237000FEF727F88046894622463346104619461E
:10238000FEF71FF804460E467F10002FEAD1DDE964
:102390000201BAF1000F42464B4602DAFEF711F88D
:1023A00001E0FEF780F804460E460022284BFEF7B7
:1023B00001F903D84FF0FF30014607E00022254B1A
:1023C00020463146FDF756FFFEF7DCF8102409E001
:1023D000002C0ADB0A220023FDF71BFF019B303291
:1023E0001A55641E50EA0102F2D1641C019AC4F12C
:1023F000110314440F9A012A03D0012208430DD17E
:102400000AE0084304D000204FF0110B0F9080E742
:10241000A3EB0B056D1E0DE05B4504DD4FF00002E4
:1024200005F1010504E003DA4FF00002A5F1010512
:10243000002AECD000980F99C0E90231C0E90045AC
:1024400086E70000000024400000F03F300000005C
:102450000000F0430000E03F2DE9FF4F95B09B46A0
:102460008946064600250FE2252877D10024274615
:10247000F84A0121059400E0044316F8013F203B8F
:1024800001FA03F01042F7D130782A2811D06FF00A
:102490002F033078A0F13002092A16D8059A44F0AB
:1024A000020402EB820203EB42021044761C059008
:1024B000EFE759F8042B0592002A03DA504244F45E
:1024C0000054059044F00204761C30782E2816D172
:1024D00016F8010F44F004042A280DD06FF02F02E3
:1024E0003078A0F13003092B09D807EB870302EB02
:1024F0004303C718761CF3E759F8047B761C307841
:102500006C280FD006DC4C2817D068280DD06A281C
:1025100014D104E0742810D07A280FD10DE044F4CF
:1025200000140AE044F4801401E044F4401472788A
:10253000824202D104F58014761C761C307866281D
:102540000BD013DC582877D009DC002875D045283B
:10255000F6D04628F4D047281AD19DE118E0632828
:1025600035D0642879D0652812D195E1702873D0D0
:1025700008DC6728F1D069286FD06E280DD06F284D
:1025800006D1B5E073282CD0752875D0782874D082
:102590005A46179990476D1C75E1C4F30250022802
:1025A00009D003280DD0D9F8001004280DD00D60F3
:1025B00009F1040967E1D9F80010EA17C1E90052EE
:1025C000F6E7D9F800100D80F2E70D70F0E719F882
:1025D000041B8DF8001000208DF80100EA46012050
:1025E00003E059F804AB4FF0FF3061074FF00001F2
:1025F00002D40DE008F101018846B9420FDA8045A6
:10260000F8DB1AF808100029F4D108E008F10101FC
:1026100088468142FADB1AF808100029F6D105989D
:102620005B46A0EB080721463846179A00F094FA5B
:10263000284400EB080507E04DE029E10DE01AF819
:10264000010B5A4617999047B8F10108F7D25B463B
:1026500021463846179A13E142E00A220092C4F359
:1026600002524FF0000A022A08D059F804CB032A7C
:102670004FEAEC710AD00DE029E02AE009F10701E8
:1026800021F00702F2E802C1914609E00FFA8CFC42
:102690004FEAEC71042A03D14FFA8CFC4FEAEC713B
:1026A000002907DA0A460021DCF1000C61EB020187
:1026B0002D2202E0220504D52B228DF804200122D0
:1026C00003E0E20701D02022F7E7904659E00A2113
:1026D00002E010220DE010214FF0000A00910BE003
:1026E00010224FF0000A44F004040827009203E08F
:1026F00008224FF0000A0092C4F30252022A05D0C9
:1027000059F804CB0021032A08D009E009F1070198
:1027100021F00702F2E802C1914605E01FFA8CFCA5
:10272000042A01D10CF0FF0C4FF00008220728D535
:10273000702806D0009B83F0100353EA0A0305D0EB
:102740000EE040228DF80420012208E05CEA01023C
:1027500006D030228DF804208DF805000222904624
:10276000009B83F0080353EA0A030AD15CEA0102E2
:1027700001D1620705D530228DF804204FF0010801
:102780007F1E582804D034A003900EA802900DE0BC
:1027900036A0F9E753466046009AFDF73AFD8446B5
:1027A0000398825C0298401E029002705CEA01006D
:1027B000F0D1029806A9081A00F1200A600702D594
:1027C00024F4803400E00127574502DDA7EB0A001E
:1027D00000E0002000EB0A01009005984144401AF7
:1027E0000590E00306D45B462146179A059800F051
:1027F000B3F90544002706E001A85A46C05D1799C1
:1028000090476D1C7F1C4745F6DBE0030CD55B460B
:102810002146179A059800F09FF9054404E03020FE
:102820005A46179990476D1C0099481E0090002940
:10283000F5DC08E0029802995A460078491C02919A
:10284000179990476D1CBAF10001AAF1010AF1DC59
:1028500065E1000009280100303132333435363764
:1028600038396162636465660000000030313233DC
:10287000343536373839414243444546000000007C
:1028800000F058F90544761C307800287FF4ECAD50
:1028900019B02846BDE8F08F620700D4062709F179
:1028A000070222F0070CFCE80223E14603F000488F
:1028B0005FEA080C02D00FF2702C0DE05FEA045CB6
:1028C00002D50FF2682C07E05FEAC47C02D00FF259
:1028D000602C01E0AFF2700C4FF0FF3823F00043A2
:1028E000CDF850C065280CD006DC452809D0462814
:1028F0001DD047283DD13DE0662818D067287ED1FD
:1029000038E00021112F01DB112000E0781CCDE917
:10291000000106A90EA8FFF7EDFCDDE90F010E9AF4
:1029200003910021009207F1010A04914DE04FF05C
:1029300000400097CDE9011006A90EA8FFF7DAFCC8
:10294000DDE90F0203920E9B11990022DDF80CA025
:102950000093049211B9791C00EB010AB7EB0A004D
:1029600004D4C0F1FF3007F1010A0490AAEB07007C
:10297000019044E0012F00DA01270021112F01DD31
:10298000112000E03846CDE9000106A90EA8FFF7A6
:10299000B1FCDDE90F010E9A039100210491009230
:1029A000BA4621070CD40399514500DA8A46BAF198
:1029B000010F05DD009AAAF10101515C302908D010
:1029C000B84202DA10F1040F06DA0121CDE9011054
:1029D00015E0AAF10101E9E7002805DC04990144AA
:1029E0000491AAEB000102E0411C514500DD8A463A
:1029F0000499401A401C01904FF0004002902007BB
:102A000004D40198504501DBCDF8048000208DF8F6
:102A10004F0002980DF14F07B0F1004F25D02B2049
:102A20000E9002984FF0020800280CDA4042029003
:102A30002D200E9007E00A210298FDF7D4FB3031DB
:102A4000029007F8011DB8F10001A8F10108F2DCBD
:102A500002980028EFD1791E0E980870307800F0A7
:102A6000200040F0450007F8020D12A8C01B00F13D
:102A700007081498007800B1012000EB0A010198C2
:102A800001EBE07105984144401A401E0590E003B7
:102A900006D45B462146179A059800F05DF8054478
:102AA0001498007818B15A46179990476D1CE003A6
:102AB00024D55B462146179A059800F04DF8054449
:102AC0001CE00498002807DBDDE90301884203DDF0
:102AD0000098405C179901E0179930205A469047BA
:102AE000049805F10105401C04900198401E0190D6
:102AF00004D12E205A46179990476D1CBAF1000157
:102B0000AAF1010ADDDC05E017F8010B5A46179916
:102B100090476D1CB8F10001A8F10108F4DC5B4698
:102B20002146179A0598ABE62D0000002B00000007
:102B3000200000002DE9F041044600251E461746FE
:102B4000880404D405E039462020B0476D1C641E7B
:102B5000F9D52846BDE8F0812DE9F041044600256D
:102B60001E469046C80301D5302700E02027880480
:102B700004D505E041463846B0476D1C641EF9D5C2
:102B80002846BDE8F081000013B54FF6FF7301221F
:102B900069460348FEF7C6FE009802B010BD00006B
:102BA0006000002082B0FDF72BFFFEF7A9FFFEF7C3
:102BB00029FFFEF777FFFDF7B7FD27A0FFF77AFBA8
:102BC0004FF47A70FDF7F2FDFEF7D2F820F00040E6
:102BD00001902748FEF702FC00212548FEF717FD6B
:102BE00004212348FEF713FD224932200880224C9D
:102BF000002520780128FCD1206900909DED000A75
:102C0000F8EE400A9DED010AB8EE401A80EE810A06
:102C100010EE100AFDF7D4FA41EC100B17A053EC9C
:102C2000102BFFF747FBE06800909DED000AF8EEDF
:102C3000400A9DED010AB8EE401A80EE810A10EEBE
:102C4000100AFDF7BDFA41EC100B13A053EC102B4A
:102C5000FFF730FB2570CCE753544D3332205057EB
:102C60004DCAE4C8EBB2B6BBF1CAB5D1E90A00005F
:102C70002400002000000020100000203E3EB2E2B0
:102C8000B5C3C2F6B3E5D6DCC6DAA3BA25302E3317
:102C90006620730A000000003E3EB2E2B5C3C2F6F1
:102CA000BFEDCAB1BCE4A3BA25302E336620730A47
:102CB000000000000000000000000000010203040A
:102CC000060708090000000001020304EC2C0008BC
:102CD0000000002010000000D4220008FC2C000896
:102CE0001000002090100000E42200080000000006
:0C2CF000000000000024F40000000000C0
:040000050800018965
:00000001FF
